:020000040800F2
:1000000000280020D51700086D12000873120008A0
:10001000791200087F120008851200080000000015
:100020000000000000000000000000008B1200082B
:100030009712000800000000A3120008AF12000889
:100040001D1800081D1800081D1800081D180008BC
:100050001D1800081D1800081D1800081D180008AC
:100060001D1800081D1800081D1800081D1800089C
:100070001D1800081D1800081D1800081D1800088C
:100080001D1800081D1800081D1800081D1800087C
:100090001D1800081D1800081D1800081D1800086C
:1000A0001D1800081D1800081D1800081D1800085C
:1000B000BD1200081D180008000000001D180008EF
:1000C0001D18000800000000000000001D180008B6
:1000D000000000001D1800081D18000800000000A6
:1000E0001D1800081D1800081D1800080000000059
:1000F0000000000000000000000000000000000000
:0C01000000000000000000005FF808F1A3
:10010C0010B5054C237833B9044B13B10448AFF345
:10011C0000800123237010BD180000200000000097
:10012C003C2E000808B5034B1BB103490348AFF341
:10013C00008008BD000000001C0000203C2E0008C0
:10014C0080B582B000AF78607B68002B03D07B68F1
:10015C00012B0CD017E0002280210D4801F05DFE30
:10016C0001224FF480710A4801F057FE0BE0012286
:10017C008021074801F051FE00224FF480710448A1
:10018C0001F04BFE00BF00BF0837BD4680BD00BF6D
:10019C000008014080B582B000AF78607B68092B05
:1001AC0000F2808101A252F823F000BFE1010008A7
:1001BC002902000871020008B902000801030008B6
:1001CC004903000891030008D90300082104000822
:1001DC006904000800220121B54801F01EFE00222E
:1001EC000221B34801F019FE00220421B04801F0AD
:1001FC0014FE00220821AE4801F00FFE002210214F
:10020C00AB4801F00AFE00222021A94801F005FEAE
:10021C0001224021A64801F000FE44E10122012107
:10022C00A34801F0FAFD00220221A14801F0F5FDDE
:10023C00002204219E4801F0F0FD012208219C4877
:10024C0001F0EBFD01221021994801F0E6FD01229D
:10025C002021974801F0E1FD01224021944801F052
:10026C00DCFD20E100220121914801F0D6FD0022A5
:10027C0002218F4801F0D1FD012204218C4801F0AC
:10028C00CCFD002208218A4801F0C7FD0022102174
:10029C00874801F0C2FD01222021854801F0BDFDF7
:1002AC0000224021824801F0B8FDFCE0002201212F
:1002BC007F4801F0B2FD002202217D4801F0ADFD26
:1002CC00002204217A4801F0A8FD00220821784878
:1002DC0001F0A3FD01221021754801F09EFD0122C1
:1002EC002021734801F099FD00224021704801F053
:1002FC0094FDD8E0012201216D4801F08EFD002211
:10030C0002216B4801F089FD00220421684801F0AC
:10031C0084FD01220821664801F07FFD0122102195
:10032C00634801F07AFD00222021614801F075FD3F
:10033C00002240215E4801F070FDB4E00022012152
:10034C005B4801F06AFD01220221594801F065FD6C
:10035C0000220421564801F060FD00220821544877
:10036C0001F05BFD01221021514801F056FD0022E5
:10037C0020214F4801F051FD002240214C4801F052
:10038C004CFD90E000220121494801F046FD01227C
:10039C000221474801F041FD00220421444801F0AC
:1003AC003CFD00220821424801F037FD00221021BB
:1003BC003F4801F032FD002220213D4801F02DFD87
:1003CC00002240213A4801F028FD6CE00022012176
:1003DC00374801F022FD00220221354801F01DFDB5
:1003EC0000220421324801F018FD01220821304876
:1003FC0001F013FD012210212D4801F00EFD012208
:10040C0020212B4801F009FD01224021284801F050
:10041C0004FD48E000220121254801F0FEFC0022E9
:10042C000221234801F0F9FC00220421204801F0AC
:10043C00F4FC002208211E4801F0EFFC00221021E0
:10044C001B4801F0EAFC00222021194801F0E5FCD0
:10045C0000224021164801F0E0FC24E0002201219A
:10046C00134801F0DAFC00220221114801F0D5FCFE
:10047C00002204210E4801F0D0FC002208210C4877
:10048C0001F0CBFC01221021094801F0C6FC00222E
:10049C002021074801F0C1FC00224021044801F052
:1004AC00BCFC00E000BF00BF0837BD4680BD00BFEC
:1004BC00000C014080B582B000AF78607B68002BE7
:1004CC0003D07B68012B0DD019E000224FF4007192
:1004DC000D4801F0A2FC01224FF480610A4801F0A2
:1004EC009CFC0CE001224FF40071074801F095FCD4
:1004FC0000224FF48061044801F08FFC00BF00BF64
:10050C000837BD4680BD00BF0008014080B582B0F1
:10051C0000AF78607B68092B00F2BC8101A252F815
:10052C0023F000BF59050008AD05000801060008BE
:10053C0055060008A9060008FD060008510700082A
:10054C00A5070008F90700084D08000800228021C3
:10055C00D34801F062FC00224FF48071D04801F0C6
:10056C005CFC00224FF40071CD4801F056FC0022D7
:10057C004FF48061CA4801F050FC00224FF4006136
:10058C00C74801F04AFC00224FF48051C44801F0E6
:10059C0044FC01224FF40051C14801F03EFC7AE1C9
:1005AC0001228021BE4801F038FC00224FF48071FA
:1005BC00BB4801F032FC00224FF40071B84801F046
:1005CC002CFC01224FF48061B54801F026FC01227D
:1005DC004FF40061B24801F020FC01224FF480512D
:1005EC00AF4801F01AFC01224FF40051AC4801F065
:1005FC0014FC50E100228021A94801F00EFC0022DD
:10060C004FF48071A64801F008FC01224FF40071F0
:10061C00A34801F002FC00224FF48061A04801F0D5
:10062C00FCFB00224FF400619D4801F0F6FB012217
:10063C004FF480519A4801F0F0FB00224FF4005126
:10064C00974801F0EAFB26E100228021944801F052
:10065C00E4FB00224FF48071914801F0DEFB002294
:10066C004FF400718E4801F0D8FB00224FF48061EA
:10067C008B4801F0D2FB01224FF40061884801F055
:10068C00CCFB01224FF48051854801F0C6FB0022BF
:10069C004FF40051824801F0C0FBFCE001228021A4
:1006AC007F4801F0BAFB00224FF480717C4801F0C6
:1006BC00B4FB00224FF40071794801F0AEFB01222B
:1006CC004FF48061764801F0A8FB01224FF40061E1
:1006DC00734801F0A2FB00224FF48051704801F0E6
:1006EC009CFB00224FF400516D4801F096FBD2E0C8
:1006FC00002280216A4801F090FB01224FF48071A6
:10070C00674801F08AFB00224FF40071644801F045
:10071C0084FB00224FF48061614801F07EFB0122D2
:10072C004FF400615E4801F078FB00224FF48051D9
:10073C005B4801F072FB00224FF40051584801F065
:10074C006CFBA8E000228021554801F066FB0122D9
:10075C004FF48071524801F060FB00224FF400719D
:10076C004F4801F05AFB00224FF480614C4801F0D5
:10077C0054FB00224FF40061494801F04EFB00226B
:10078C004FF48051464801F048FB00224FF40051D1
:10079C00434801F042FB7EE000228021404801F0FA
:1007AC003CFB00224FF480713D4801F036FB0022E7
:1007BC004FF400713A4801F030FB01224FF4806194
:1007CC00374801F02AFB01224FF40061344801F054
:1007DC0024FB01224FF48051314801F01EFB012211
:1007EC004FF400512E4801F018FB54E000228021F8
:1007FC002B4801F012FB00224FF48071284801F0C5
:10080C000CFB00224FF40071254801F006FB00227E
:10081C004FF48061224801F000FB00224FF400618C
:10082C001F4801F0FAFA00224FF480511C4801F0E5
:10083C00F4FA00224FF40051194801F0EEFA2AE0C4
:10084C0000228021164801F0E8FA00224FF4807152
:10085C00134801F0E2FA00224FF40071104801F045
:10086C00DCFA00224FF480610D4801F0D6FA012227
:10087C004FF400610A4801F0D0FA00224FF4805185
:10088C00074801F0CAFA00224FF40051044801F065
:10089C00C4FA00E000BF00BF0837BD4680BD00BFF2
:1008AC00000C014080B500AF334B1B68032B5AD8AA
:1008BC0001A252F823F000BFD5080008F508000883
:1008CC001F0900084909000800F0E0F82A4B012232
:1008DC001A602A4B1B683233294A1360284B1B6859
:1008EC00184600F081FB45E0002000F0F3F8254BA2
:1008FC001B68012B39D1204B02221A60224B1B683A
:10090C0032331F4A13601E4B1B68184600F06CFBF9
:10091C002BE0012000F0DEF81A4B1B68012B26D1CE
:10092C00154B03221A60194B1B683233144A13609F
:10093C00134B1B68184600F057FB18E0022000F020
:10094C00C9F8104B1B68012B13D10B4B01221A60F9
:10095C000A4B1B6832330A4A1360094B1B68184652
:10096C0000F042FB05E000BF04E000BF02E000BF66
:10097C0000E000BF00BF80BD3C0000200000002054
:10098C0034000020B00000200400002008000020EB
:10099C0080B500AF334B1B68032B5AD801A252F819
:1009AC0023F000BFC1090008E10900080B0A000888
:1009BC00350A000800F06AF82A4B02221A602A4B0A
:1009CC001B683233294A1360284B1B68184600F009
:1009DC001FFB45E0002000F0C5F8254B1B68012BE0
:1009EC0039D1204B02221A601F4B1B6832331F4A2D
:1009FC0013601E4B1B68184600F00AFB2BE001200D
:100A0C0000F0B0F81A4B1B68012B26D1154B0322B2
:100A1C001A60184B1B683233144A1360134B1B6853
:100A2C00184600F0F5FA18E0022000F09BF8104B85
:100A3C001B68012B13D10B4B01221A600E4B1B6848
:100A4C0032330A4A1360094B1B68184600F0E0FA6F
:100A5C0005E000BF04E000BF02E000BF00E000BF03
:100A6C0000BF80BD400000200400002038000020A2
:100A7C00B8000020080000200000002080B500AF66
:100A8C00FFF710FFFFF784FF00BF80BD80B500AFFC
:100A9C00012201210E4801F0C0F9012202210C486B
:100AAC0001F0BBF901220421094801F0B6F9012239
:100ABC000821074801F0B1F901221021044801F086
:100ACC00ACF901222021024801F0A7F900BF80BD3A
:100ADC000008014080B582B000AF78607B68022BC3
:100AEC0029D07B68022B36DC7B68002B03D07B681B
:100AFC00012B10D02FE000220121194801F08DF9B3
:100B0C0001220221164801F088F90122042114481F
:100B1C0001F083F920E001220121114801F07DF957
:100B2C00002202210E4801F078F9012204210C4820
:100B3C0001F073F910E001220121094801F06DF96F
:100B4C0001220221064801F068F900220421044820
:100B5C0001F063F900E000BF00BF0837BD4680BD5F
:100B6C000008014080B582B000AF78607B68022B32
:100B7C0029D07B68022B36DC7B68002B03D07B688A
:100B8C00012B10D02FE000220821194801F045F963
:100B9C0001221021164801F040F9012220211448AD
:100BAC0001F03BF920E001220821114801F035F950
:100BBC00002210210E4801F030F9012220210C48AE
:100BCC0001F02BF910E001220821094801F025F968
:100BDC0001221021064801F020F9002220210448AE
:100BEC0001F01BF900E000BF00BF0837BD4680BD17
:100BFC000008014080B500AF1C4B1B78022B24D0A1
:100C0C00022B31DC002B02D0012B0AD02CE000206F
:100C1C0000F08CF80346002B21D0144B01221A70E3
:100C2C001DE0002000F082F80346002B03D10F4B8F
:100C3C0000221A7015E0002000F092F80346002BF9
:100C4C000FD00A4B02221A700BE0002000F06EF855
:100C5C000346002B07D1054B00221A7003E000BF9E
:100C6C0002E000BF00E000BF00BF80BD4C000020D0
:100C7C0090B583B000AF0023FB7143E0FA79FB79A8
:100C8C002449895C244AD154FC794FF4805123487F
:100C9C0001F0ACF803461A461E4B1A55FB791D4A57
:100CAC00D25CFB791C49CB5C9A4228D1FA79FB794E
:100CBC001849895C1A4AD154FB79194AD35C002B28
:100CCC0014D1FB79174A32F81330632B09D8FB790E
:100CDC00144A32F81320013291B2124A22F813103E
:100CEC000DE0FB79104A0121D15408E0FB790D4A43
:100CFC00002122F81310FB790B4A0021D154FB7907
:100D0C000133FB71FB79002BB8D000BF00BF0C374F
:100D1C00BD4690BD54000020580000200008014042
:100D2C0050000020600000205C00002080B483B0E4
:100D3C0000AF0346FB71FB79002B01D0002307E0C9
:100D4C00FB79064AD35C002B0CBF01230023DBB2DA
:100D5C0018460C37BD4680BC704700BF50000020C1
:100D6C0080B483B000AF0346FB71FB79002B01D03C
:100D7C00FF2307E0FB79064AD35C012B0CBF012350
:100D8C000023DBB218460C37BD4680BC704700BF51
:100D9C005C00002080B500AF00F03CFD00F026F8B0
:100DAC0000F0ACF800F05EF80B4801F07DFC0B4B4A
:100DBC0000221A600A4B00221A600A4B00221A60A9
:100DCC00094B00221A60FFF759FE00F0ADFA00F053
:100DDC00E9FBFFF70FFFF6E7640000203C00002062
:100DEC0040000020440000204800002080B590B056
:100DFC0000AF07F1180328220021184601F0ECFF80
:100E0C003B1D00221A605A609A60DA601A61022354
:100E1C00BB610123BB621023FB6200237B6307F1E0
:100E2C001803184601F012F80346002B01D000F00D
:100E3C00D5F80F237B600023BB600023FB600023ED
:100E4C003B6100237B613B1D0021184601F080FAB9
:100E5C000346002B01D000F0C1F800BF4037BD465F
:100E6C0080BD000080B586B000AF07F108030022FA
:100E7C001A605A609A60DA603B4600221A605A6027
:100E8C001D4B4FF080421A601B4B41F63F725A606B
:100E9C00194B00229A60184B0922DA60164B00227B
:100EAC001A61154B00229A61134801F0ADFB034601
:100EBC00002B01D000F092F84FF48053BB6007F187
:100ECC00080319460C4801F043FD0346002B01D0E2
:100EDC0000F084F800233B6000237B603B461946FE
:100EEC00054801F00FFF0346002B01D000F076F807
:100EFC0000BF1837BD4680BD6400002080B586B0A9
:100F0C0000AF07F1080300221A605A609A60DA6099
:100F1C00294B9B69284A43F004039361264B9B6938
:100F2C0003F004037B607B68234B9B69224A43F0EC
:100F3C0008039361204B9B6903F008033B603B68FB
:100F4C00002240F2BF711D4800F067FF002243F6FB
:100F5C00FF711B4800F061FF40F2BF73BB600123BF
:100F6C00FB6000233B6102237B6107F108031946F8
:100F7C00124800F0BFFD43F6FF73BB600123FB601A
:100F8C0000233B6102237B6107F1080319460C48DF
:100F9C0000F0B0FD4FF4E043BB600023FB60002386
:100FAC003B6107F108031946044800F0A3FD00BF9C
:100FBC001837BD4680BD00BF00100240000801403C
:100FCC00000C014080B582B000AF786000F084F86E
:100FDC00FFF74EFE00BF0837BD4680BD80B400AFA2
:100FEC0072B600BFFEE7000080B483B000AF78603B
:100FFC00054A7B681360054B00221A6000BF0C3752
:10100C00BD4680BC704700BFAC000020B000002083
:10101C0080B483B000AF7860054A7B681360054BE1
:10102C0000221A6000BF0C37BD4680BC704700BF61
:10103C00B4000020B800002080B483B000AF78600A
:10104C00054A7B681360054B00221A6000BF0C3701
:10105C00BD4680BC704700BFBC000020C000002013
:10106C0080B483B000AF7860054A7B681360054B91
:10107C0000221A6000BF0C37BD4680BC704700BF11
:10108C00C4000020C800002080B483B000AF78609A
:10109C00054A7B681360054B00221A6000BF0C37B1
:1010AC00BD4680BC704700BFCC000020D0000020A3
:1010BC0080B483B000AF7860054A7B681360054B41
:1010CC0000221A6000BF0C37BD4680BC704700BFC1
:1010DC00D4000020D800002080B400AF314B1B6836
:1010EC00002B04DD2F4B1B68013B2E4A13602D4B4C
:1010FC001B68002B02DC2C4B01221A602B4B1B684B
:10110C00002B04DD294B1B68013B284A1360274B3D
:10111C001B68002B02DC264B01221A60254B1B6836
:10112C00002B04DD234B1B68013B224A1360214B2F
:10113C001B68002B02DC204B01221A601F4B1B6822
:10114C00002B04DD1D4B1B68013B1C4A13601B4B21
:10115C001B68002B02DC1A4B01221A60194B1B680E
:10116C00002B04DD174B1B68013B164A1360154B13
:10117C001B68002B02DC144B01221A60134B1B68FA
:10118C00002B04DD114B1B68013B104A13600F4B05
:10119C001B68002B02DC0E4B01221A6000BFBD46FF
:1011AC0080BC7047AC000020B0000020B4000020D0
:1011BC00B8000020BC000020C0000020C4000020AB
:1011CC00C8000020CC000020D0000020D40000205B
:1011DC00D800002080B483B000AF0E4B9B690D4A41
:1011EC0043F0010393610B4B9B6903F001037B609C
:1011FC007B68084BDB69074A43F08053D361054B8E
:10120C00DB6903F080533B603B6800BF0C37BD4685
:10121C0080BC70470010024080B584B000AF78608D
:10122C007B681B68B3F1804F13D10C4BDB690B4A05
:10123C0043F00103D361094BDB6903F00103FB604D
:10124C00FB68002200211C2000F01DFC1C2000F07B
:10125C0036FC00BF1037BD4680BD00BF00100240F9
:10126C0080B400AFFEE780B400AFFEE780B400AFFF
:10127C00FEE780B400AFFEE780B400AFFEE780B4B9
:10128C0000AF00BFBD4680BC704780B400AF00BF4C
:10129C00BD4680BC704780B400AF00BFBD4680BC6B
:1012AC00704780B500AF00F0FBFA00BF80BD0000B6
:1012BC0080B500AF024801F043FA00BF80BD00BF0B
:1012CC006400002080B400AF00BFBD4680BC7047F6
:1012DC0080B483B000AF114B1B68114A82FB031220
:1012EC009210DB17D31A7B600C4B1A680C4B83FBE8
:1012FC0002139910D317C91A0B469B000B445B00C1
:10130C00D31A3B60074A7B681360064A3B685360FC
:10131C0000BF0C37BD4680BC704700BFDC0000200E
:10132C0067666666E400002080B500AF7D4B1B68E5
:10133C00032B00F2EE8001A252F823F0591300089F
:10134C00851300080F14000897140008764B1B68CF
:10135C00764A82FB03125211DB17D31A744A1360BC
:10136C00FFF7B6FF6F4B01221A603220FFF764FEC5
:10137C006420FFF775FED3E06E4B1B68012B1FD169
:10138C003220FFF759FE6C4B1B68012B11DC6A4BAA
:10139C001B681846FEF7D4FE674B1B68674A52F869
:1013AC0023301846FEF7F6FE634B1B680133624A86
:1013BC001360614B1B68012B02DD5F4B00221A602E
:1013CC005F4B1B68012B40F0A6806420FFF748FEA2
:1013DC00574B1B68013B564A1360554B1B68002B3F
:1013EC000CDC504B02221A60564B1B684F4A82FB96
:1013FC0003125211DB17D31A4D4A1360FFF768FF23
:10140C0089E04C4B1B68012B1FD13220FFF714FED7
:10141C00494B1B68012B11DC474B1B681846FEF728
:10142C008FFE454B1B68454A52F823301846FEF791
:10143C00B1FE414B1B6801333F4A13603E4B1B68A6
:10144C00012B02DD3C4B00221A603D4B1B68012B2B
:10145C0063D16420FFF704FE354B1B68013B344A13
:10146C001360334B1B68002B0CDC2E4B03221A60D1
:10147C00354B1B682D4A82FB03125211DB17D31A12
:10148C002B4A1360FFF724FF47E02A4B1B68012B04
:10149C001FD13220FFF7D0FD274B1B68012B11DC2D
:1014AC00254B1B681846FEF74BFE234B1B68234A43
:1014BC0052F823301846FEF76DFE1F4B1B680133A4
:1014CC001D4A13601C4B1B68012B02DD1A4B0022BA
:1014DC001A601B4B1B68012B21D16420FFF7C0FD48
:1014EC00134B1B68013B124A1360114B1B68002BFA
:1014FC000CDC0C4B01221A600B4B1B680B4A82FB59
:10150C0003125211DB17D31A094A1360FFF7E0FEDE
:10151C0005E000BF04E000BF02E000BF00E000BF38
:10152C0000BF80BD44000020000000201F85EB514F
:10153C00DC000020C0000020E0000020E4000020BF
:10154C00C8000020040000200800002080B483B0F4
:10155C0000AF114B1B68114A82FB03129210DB1770
:10156C00D31A7B600C4B1A680C4B83FB021399103B
:10157C00D317C91A0B469B000B445B00D31A3B6074
:10158C00074A7B681360064A3B68536000BF0C3700
:10159C00BD4680BC704700BFEC00002067666666E5
:1015AC00F400002080B500AF7D4B1B68032B00F2CC
:1015BC00EE8001A252F823F0D515000801160008A0
:1015CC008B16000813170008764B1B68764A82FBB3
:1015DC0003125211DB17D31A744A1360FFF7B6FFCC
:1015EC006F4B02221A603220FFF74EFD6420FFF78A
:1015FC005FFDD3E06E4B1B68012B1FD13220FFF730
:10160C0043FD6C4B1B68012B11DC6A4B1B681846A5
:10161C00FEF750FF674B1B68674A52F82330184699
:10162C00FEF774FF634B1B680133624A1360614B16
:10163C001B68012B02DD5F4B00221A605F4B1B689D
:10164C00012B40F0A6806420FFF732FD574B1B683E
:10165C00013B564A1360554B1B68002B0CDC504B5E
:10166C0002221A604F4B1B684F4A82FB0312521125
:10167C00DB17D31A4D4A1360FFF768FF89E04C4B18
:10168C001B68012B1FD13220FFF7FEFC494B1B6856
:10169C00012B11DC474B1B681846FEF70BFF454B23
:1016AC001B68454A52F823301846FEF72FFF414B72
:1016BC001B6801333F4A13603E4B1B68012B02DD54
:1016CC003C4B00221A603D4B1B68012B63D16420FC
:1016DC00FFF7EEFC354B1B68013B344A1360334B70
:1016EC001B68002B0CDC2E4B03221A60344B1B683E
:1016FC002D4A82FB03125211DB17D31A2B4A1360AB
:10170C00FFF724FF47E02A4B1B68012B1FD1322027
:10171C00FFF7BAFC274B1B68012B11DC254B1B6810
:10172C001846FEF7C7FE234B1B68234A52F823309A
:10173C001846FEF7EBFE1F4B1B6801331D4A136066
:10174C001C4B1B68012B02DD1A4B00221A601B4B31
:10175C001B68012B21D16420FFF7AAFC134B1B68DB
:10176C00013B124A1360114B1B68002B0CDC0C4B19
:10177C0001221A60134B1B680B4A82FB0312521195
:10178C00DB17D31A094A1360FFF7E0FE05E000BF30
:10179C0004E000BF02E000BF00E000BF00BF80BD5E
:1017AC0048000020040000201F85EB51EC000020B5
:1017BC00D0000020F0000020F4000020D800002011
:1017CC000800002000000020FFF77CFD0B480C49AE
:1017DC000C4A002302E0D458C4500433C4188C4281
:1017EC00F9D3094A094C002301E013600432A242E8
:1017FC00FBD301F0F9FAFFF7CDFA70470000002097
:10180C0018000020802E0008180000200001002085
:10181C00FEE7000080B500AF084B1B68074A43F099
:10182C0010031360032000F023F90F2000F008F8D8
:10183C00FFF7D0FC0023184680BD00BF00200240FB
:10184C0080B582B000AF7860124B1A68124B1B78CF
:10185C0019464FF47A73B3FBF1F3B2FBF3F318466A
:10186C0000F03BF90346002B01D001230EE07B680E
:10187C000F2B0AD8002279684FF0FF3000F003F9E3
:10188C00064A7B681360002300E0012318460837E2
:10189C00BD4680BD0C00002014000020100000206C
:1018AC0080B400AF054B1B781A46054B1B681344DC
:1018BC00034A136000BFBD4680BC70471400002073
:1018CC00FC00002080B400AF024B1B681846BD46DC
:1018DC0080BC7047FC00002080B485B000AF7860FD
:1018EC007B6803F00703FB600C4BDB68BB60BA68DA
:1018FC004FF6FF031340BB60FB681A02BB6813432F
:10190C0043F0BF6343F40033BB60044ABB68D3604D
:10191C0000BF1437BD4680BC704700BF00ED00E02F
:10192C0080B400AF044BDB681B0A03F007031846B6
:10193C00BD4680BC704700BF00ED00E080B483B0B2
:10194C0000AF0346FB7197F90730002B0BDBFB79DB
:10195C0003F01F02064997F907305B09012000FAD2
:10196C0002F241F8232000BF0C37BD4680BC704703
:10197C0000E100E080B483B000AF03463960FB7136
:10198C0097F90730002B0ADB3B68DAB20C4997F960
:10199C0007301201D2B20B4483F800230AE03B68F3
:1019AC00DAB20849FB7903F00F03043B1201D2B2FF
:1019BC000B441A7600BF0C37BD4680BC704700BF85
:1019CC0000E100E000ED00E080B489B000AFF86009
:1019DC00B9607A60FB6803F00703FB61FB69C3F134
:1019EC000703042B28BF0423BB61FB690433062BBC
:1019FC0002D9FB69033B00E000237B614FF0FF320F
:101A0C00BB6902FA03F3DA43BB681A407B699A405C
:101A1C004FF0FF317B6901FA03F3D9437B680B402C
:101A2C00134318462437BD4680BC704780B582B03E
:101A3C0000AF78607B68013BB3F1807F01D3012359
:101A4C000FE00A4A7B68013B53600F214FF0FF30D7
:101A5C00FFF790FF054B00229A60044B07221A6097
:101A6C00002318460837BD4680BD00BF10E000E0DB
:101A7C0080B582B000AF78607868FFF72DFF00BFAB
:101A8C000837BD4680BD80B586B000AF0346B9604F
:101A9C007A60FB7300237B61FFF742FF78617A6801
:101AAC00B9687869FFF790FF024697F90F30114635
:101ABC001846FFF75FFF00BF1837BD4680BD80B5E5
:101ACC0082B000AF0346FB7197F907301846FFF759
:101ADC0035FF00BF0837BD4680BD80B582B000AF72
:101AEC0078607868FFF7A2FF034618460837BD46B2
:101AFC0080BD000080B48BB000AF786039600023EB
:101B0C007B6200233B6261E101227B6A02FA03F3F0
:101B1C00FB613B681B68FA691340BB61BA69FB69DE
:101B2C009A4240F050813B685B68974A93425ED082
:101B3C00954A934275D8954A934258D0934A93420A
:101B4C006FD8934A934252D0914A934269D8914AA2
:101B5C0093424CD08F4A934263D88F4A934246D0DB
:101B6C008D4A93425DD8122B2AD8122B59D801A238
:101B7C0052F823F0FB1B0008D51B0008E71B0008DC
:101B8C00291C00082F1C00082F1C00082F1C000803
:101B9C002F1C00082F1C00082F1C00082F1C0008ED
:101BAC002F1C00082F1C00082F1C00082F1C0008DD
:101BBC002F1C00082F1C0008DD1B0008F11B00085F
:101BCC00764A934213D02CE03B68DB683B6229E0F9
:101BDC003B68DB6804333B6224E03B68DB6808331A
:101BEC003B621FE03B68DB680C333B621AE03B68EE
:101BFC009B68002B02D104233B6213E03B689B687B
:101C0C00012B05D108233B627B68FA691A6109E054
:101C1C0008233B627B68FA695A6103E000233B624C
:101C2C0000E000BFBB69FF2B01D87B6801E07B683B
:101C3C0004337B61BB69FF2B02D87B6A9B0002E0FB
:101C4C007B6A083B9B003B617B691A680F213B69EF
:101C5C0001FA03F3DB431A40396A3B6901FA03F3D7
:101C6C001A437B691A603B685B6803F08053002B56
:101C7C0000F0A9804A4B9B69494A43F001039361E8
:101C8C00474B9B6903F00103BB60BB68454A7B6A09
:101C9C009B08023352F82330FB607B6A03F003038A
:101CAC009B000F2202FA03F3DB43FA681340FB603C
:101CBC007B683D4A93420DD07B683C4A934207D0E7
:101CCC007B683B4A934201D1022304E0032302E0E8
:101CDC00012300E000237A6A02F003029200934091
:101CEC00FA681343FB602F497B6A9B080233FA683E
:101CFC0041F823203B685B6803F48013002B06D06B
:101D0C002C4B9A682B49BB6913438B6006E0294B1B
:101D1C009A68BB69DB43274913408B603B685B685F
:101D2C0003F40013002B06D0224BDA682149BB695F
:101D3C001343CB6006E01F4BDA68BB69DB431D49DC
:101D4C001340CB603B685B6803F40033002B06D078
:101D5C00184B5A681749BB6913434B6006E0154B87
:101D6C005A68BB69DB43134913404B603B685B68A3
:101D7C0003F48033002B1FD00E4B1A680D49BB693E
:101D8C0013430B601FE000BF000032100000311045
:101D9C000000221000002110000012100000111091
:101DAC00001002400000014000080140000C0140FE
:101DBC0000100140000401400B4B1A68BB69DB4367
:101DCC00094913400B607B6A01337B623B681A68DC
:101DDC007B6A22FA03F3002B7FF496AE00BF00BFA0
:101DEC002C37BD4680BC70470004014080B485B0E0
:101DFC0000AF78600B467B807B689A687B881340C9
:101E0C00002B02D00123FB7301E00023FB73FB7B4F
:101E1C0018461437BD4680BC704780B483B000AF01
:101E2C0078600B467B8013467B707B78002B03D04D
:101E3C007A887B681A6103E07B881A047B681A61D4
:101E4C0000BF0C37BD4680BC7047000080B586B023
:101E5C0000AF78607B68002B01D1012372E27B68B4
:101E6C001B6803F00103002B00F08780924B5B682A
:101E7C0003F00C03042B0CD08F4B5B6803F00C03AA
:101E8C00082B12D18C4B5B6803F48033B3F5803F85
:101E9C000BD1894B1B6803F40033002B6CD07B688F
:101EAC005B68002B68D101234CE27B685B68B3F55F
:101EBC00803F06D1804B1B687F4A43F4803313600C
:101ECC002EE07B685B68002B0CD17B4B1B687A4A3D
:101EDC0023F480331360784B1B68774A23F48023F8
:101EEC0013601DE07B685B68B3F5A02F0CD1724BBF
:101EFC001B68714A43F4802313606F4B1B686E4A56
:101F0C0043F4803313600BE06B4B1B686A4A23F479
:101F1C0080331360684B1B68674A23F4802313607B
:101F2C007B685B68002B13D0FFF7CCFC386108E0B2
:101F3C00FFF7C8FC02463B69D31A642B01D9032373
:101F4C0000E25D4B1B6803F40033002BF0D014E06F
:101F5C00FFF7B8FC386108E0FFF7B4FC02463B69B8
:101F6C00D31A642B01D90323ECE1534B1B6803F404
:101F7C000033002BF0D100E000BF7B681B6803F03E
:101F8C000203002B63D04C4B5B6803F00C03002B5B
:101F9C000BD0494B5B6803F00C03082B1CD1464B50
:101FAC005B6803F48033002B16D1434B1B6803F0A2
:101FBC000203002B05D07B681B69012B01D0012388
:101FCC00C0E13D4B1B6823F0F8027B685B69DB00CA
:101FDC00394913430B603AE07B681B69002B20D016
:101FEC00364B01221A60FFF76DFC386108E0FFF7F1
:101FFC0069FC02463B69D31A022B01D90323A1E1E8
:10200C002D4B1B6803F00203002BF0D02A4B1B68EE
:10201C0023F0F8027B685B69DB00274913430B60F4
:10202C0015E0264B00221A60FFF74CFC386108E0E3
:10203C00FFF748FC02463B69D31A022B01D9032354
:10204C0080E11D4B1B6803F00203002BF0D17B6871
:10205C001B6803F00803002B3AD07B689B69002BAC
:10206C0019D0174B01221A60FFF72CFC386108E0DD
:10207C00FFF728FC02463B69D31A022B01D9032334
:10208C0060E10D4B5B6A03F00203002BF0D00120E2
:10209C0000F09CFA1CE00A4B00221A60FFF712FCBD
:1020AC0038610FE0FFF70EFC02463B69D31A022B96
:1020BC0008D9032346E100BF001002400000424251
:1020CC0080044242924B5B6A03F00203002BE9D17D
:1020DC007B681B6803F00403002B00F0A680002330
:1020EC00FB758B4BDB6903F08053002B0DD1884BB8
:1020FC00DB69874A43F08053D361854BDB6903F07E
:10210C008053BB60BB680123FB75824B1B6803F4D7
:10211C008073002B18D17F4B1B687E4A43F480736D
:10212C001360FFF7CFFB386108E0FFF7CBFB0246EB
:10213C003B69D31A642B01D9032303E1754B1B684C
:10214C0003F48073002BF0D07B68DB68012B06D185
:10215C006F4B1B6A6E4A43F0010313622DE07B68E0
:10216C00DB68002B0CD16A4B1B6A694A23F0010314
:10217C001362674B1B6A664A23F0040313621CE06C
:10218C007B68DB68052B0CD1614B1B6A604A43F002
:10219C00040313625E4B1B6A5D4A43F00103136236
:1021AC000BE05B4B1B6A5A4A23F001031362584B3A
:1021BC001B6A574A23F0040313627B68DB68002B0D
:1021CC0015D0FFF77FFB38610AE0FFF77BFB024677
:1021DC003B69D31A41F28832934201D90323B1E00F
:1021EC004B4B1B6A03F00203002BEED014E0FFF7FD
:1021FC0069FB38610AE0FFF765FB02463B69D31ABD
:10220C0041F28832934201D903239BE0404B1B6A75
:10221C0003F00203002BEED1FB7D012B05D13C4BCF
:10222C00DB693B4A23F08053D3617B68DB69002B6D
:10223C0000F08780364B5B6803F00C03082B61D0F1
:10224C007B68DB69022B46D1334B00221A60FFF707
:10225C0039FB386108E0FFF735FB02463B69D31ABE
:10226C00022B01D903236DE0294B1B6803F000738B
:10227C00002BF0D17B681B6AB3F5803F08D1244B4F
:10228C005B6823F400327B689B68214913434B60E5
:10229C001F4B5B6823F474127B68196A7B685B6A5A
:1022AC000B431B4913434B601B4B01221A60FFF776
:1022BC0009FB386108E0FFF705FB02463B69D31ABE
:1022CC00022B01D903233DE0114B1B6803F0007373
:1022DC00002BF0D035E0104B00221A60FFF7F2FA19
:1022EC00386108E0FFF7EEFA02463B69D31A022B7D
:1022FC0001D9032326E0064B1B6803F00073002B67
:10230C00F0D11EE07B68DB69012B07D1012319E0BA
:10231C000010024000700040600042420B4B5B68B2
:10232C00FB60FB6803F480327B681B6A9A4206D11F
:10233C00FB6803F470127B685B6A9A4201D001233C
:10234C0000E0002318461837BD4680BD001002403F
:10235C0080B584B000AF786039607B68002B01D108
:10236C000123D0E06A4B1B6803F007033A689A42DA
:10237C0010D9674B1B6823F0070265493B68134370
:10238C000B60634B1B6803F007033A689A4201D059
:10239C000123B8E07B681B6803F00203002B20D0FC
:1023AC007B681B6803F00403002B05D0594B5B685A
:1023BC00584A43F4E06353607B681B6803F00803DE
:1023CC00002B05D0534B5B68524A43F46053536067
:1023DC00504B5B6823F0F0027B689B684D491343BC
:1023EC004B607B681B6803F00103002B40D07B68BB
:1023FC005B68012B07D1474B1B6803F40033002BA0
:10240C0015D101237FE07B685B68022B07D1414B20
:10241C001B6803F00073002B09D1012373E03D4BC3
:10242C001B6803F00203002B01D101236BE0394B35
:10243C005B6823F003027B685B68364913434B608F
:10244C00FFF740FAF8600AE0FFF73CFA0246FB6837
:10245C00D31A41F28832934201D9032353E02D4B16
:10246C005B6803F00C027B685B689B009A42EBD1C3
:10247C00274B1B6803F007033A689A4210D2244B8F
:10248C001B6823F0070222493B6813430B60204B67
:10249C001B6803F007033A689A4201D0012332E02B
:1024AC007B681B6803F00403002B08D0194B5B6896
:1024BC0023F4E0627B68DB68164913434B607B684E
:1024CC001B6803F00803002B09D0124B5B6823F444
:1024DC0060527B681B69DB000E4913434B6000F0B4
:1024EC0021F802460B4B5B681B0903F00F030A49EA
:1024FC00CB5C22FA03F3094A1360094B1B6818469C
:10250C00FFF79EF9002318461037BD4680BD00BF6B
:10251C000020024000100240542E00080C00002045
:10252C001000002080B487B000AF0023FB600023B4
:10253C00BB6000237B6100237B6000233B611E4B4F
:10254C005B68FB60FB6803F00C03042B02D0082BC8
:10255C0003D027E0194B3B6127E0FB689B0C03F091
:10256C000F03174AD35C7B60FB6803F48033002BAA
:10257C0010D0114B5B685B0C03F00103114AD35C68
:10258C00BB607B680D4A03FB02F2BB68B2FBF3F342
:10259C007B6104E07B680C4A02FB03F37B617B6983
:1025AC003B6102E0054B3B6100BF3B6918461C37A1
:1025BC00BD4680BC704700BF0010024000127A007C
:1025CC00642E0008742E000800093D0080B485B00C
:1025DC0000AF78600A4B1B680A4AA2FB03235B0A14
:1025EC007A6802FB03F3FB6000BFFB685A1EFA60BB
:1025FC00002BF9D100BF00BF1437BD4680BC70471B
:10260C000C000020D34D621080B582B000AF786012
:10261C007B68002B01D1012341E07B6893F83D30AE
:10262C00DBB2002B06D17B68002283F83C20786853
:10263C00FEF7F2FD7B68022283F83D207B681A6866
:10264C007B6804331946104600F06EFA7B68012251
:10265C0083F846207B68012283F83E207B680122A8
:10266C0083F83F207B68012283F840207B6801229D
:10267C0083F841207B68012283F842207B68012289
:10268C0083F843207B68012283F844207B68012275
:10269C0083F845207B68012283F83D2000231846EF
:1026AC000837BD4680BD000080B485B000AF7860AF
:1026BC007B6893F83D30DBB2012B01D0012335E070
:1026CC007B68022283F83D207B681B68DA687B6894
:1026DC001B6842F00102DA607B681B68164A934261
:1026EC0009D07B681B68B3F1804F04D07B681B68F2
:1026FC00124A934211D17B681B689B6803F0070355
:10270C00FB60FB68062B10D07B681B681A687B6823
:10271C001B6842F001021A6007E07B681B681A68AC
:10272C007B681B6842F001021A60002318461437BC
:10273C00BD4680BC704700BF002C01400004004027
:10274C0080B582B000AF78607B681B681B6903F0B2
:10275C000203022B22D17B681B68DB6803F00203A7
:10276C00022B1BD17B681B686FF002021A617B681D
:10277C0001221A777B681B689B6903F00303002B0B
:10278C0003D0786800F0B4F905E0786800F0A7F998
:10279C00786800F0B6F97B6800221A777B681B68B2
:1027AC001B6903F00403042B22D17B681B68DB68D4
:1027BC0003F00403042B1BD17B681B686FF004022D
:1027CC001A617B6802221A777B681B689B6903F489
:1027DC004073002B03D0786800F08AF905E0786824
:1027EC0000F07DF9786800F08CF97B6800221A778C
:1027FC007B681B681B6903F00803082B22D17B68DC
:10280C001B68DB6803F00803082B1BD17B681B6873
:10281C006FF008021A617B6804221A777B681B68C8
:10282C00DB6903F00303002B03D0786800F060F938
:10283C0005E0786800F053F9786800F062F97B687D
:10284C0000221A777B681B681B6903F01003102B9E
:10285C0022D17B681B68DB6803F01003102B1BD1A3
:10286C007B681B686FF010021A617B6808221A776C
:10287C007B681B68DB6903F44073002B03D078681A
:10288C0000F036F905E0786800F029F9786800F076
:10289C0038F97B6800221A777B681B681B6903F088
:1028AC000103012B0ED17B681B68DB6803F001036D
:1028BC00012B07D17B681B686FF001021A617868E5
:1028CC00FEF780FB7B681B681B6903F08003802B81
:1028DC000ED17B681B68DB6803F08003802B07D16B
:1028EC007B681B686FF080021A61786800F06BFAE5
:1028FC007B681B681B6903F04003402B0ED17B687F
:10290C001B68DB6803F04003402B07D17B681B6816
:10291C006FF040021A61786800F0FCF87B681B6865
:10292C001B6903F02003202B0ED17B681B68DB682E
:10293C0003F02003202B07D17B681B686FF020026B
:10294C001A61786800F036FA00BF0837BD4680BDC2
:10295C0080B584B000AF786039600023FB737B686E
:10296C0093F83C30012B01D10223B4E07B680122A7
:10297C0083F83C207B68022283F83D207B681B682F
:10298C009B68BB60BB6823F07703BB60BB6823F418
:10299C007F43BB607B681B68BA689A603B681B68A6
:1029AC00B3F5005F3ED0B3F5005F00F28780B3F55E
:1029BC00805F00F08680B3F5805F7FD8702B1AD0D3
:1029CC00702B7BD8602B50D0602B77D8502B3CD001
:1029DC00502B73D8402B58D0402B6FD8302B64D051
:1029EC00302B6BD8202B60D0202B67D8002B5CD0E1
:1029FC00102B5AD062E07B6818683B6899683B687A
:102A0C005A683B68DB6800F05EF97B681B689B6862
:102A1C00BB60BB6843F07703BB607B681B68BA681C
:102A2C009A604FE07B6818683B6899683B685A6805
:102A3C003B68DB6800F047F97B681B689A687B6829
:102A4C001B6842F480429A603CE07B6818683B68E3
:102A5C0059683B68DB681A4600F0BEF87B681B6857
:102A6C005021184600F015F92CE07B6818683B687B
:102A7C0059683B68DB681A4600F0DCF87B681B6819
:102A8C006021184600F005F91CE07B6818683B686B
:102A9C0059683B68DB681A4600F09EF87B681B6837
:102AAC004021184600F0F5F80CE07B681A683B688A
:102ABC001B681946104600F0ECF803E00123FB7389
:102ACC0000E000BF7B68012283F83D207B68002278
:102ADC0083F83C20FB7B18461037BD4680BD80B484
:102AEC0083B000AF786000BF0C37BD4680BC704728
:102AFC0080B483B000AF786000BF0C37BD4680BC9B
:102B0C00704780B483B000AF786000BF0C37BD460F
:102B1C0080BC704780B483B000AF786000BF0C37C6
:102B2C00BD4680BC7047000080B485B000AF7860B3
:102B3C0039607B681B68FB607B68254A934207D031
:102B4C007B68B3F1804F03D07B68224A934208D153
:102B5C00FB6823F07003FB603B685B68FA68134307
:102B6C00FB607B681A4A934207D07B68B3F1804FB5
:102B7C0003D07B68174A934208D1FB6823F4407357
:102B8C00FB603B68DB68FA681343FB60FB6823F06F
:102B9C0080023B685B691343FB607B68FA681A60D0
:102BAC003B689A687B68DA623B681A687B689A6251
:102BBC007B68074A934203D13B681A697B681A63A6
:102BCC007B6801225A6100BF1437BD4680BC704738
:102BDC00002C01400004004080B487B000AFF860C6
:102BEC00B9607A60FB681B6A7B61FB681B6A23F027
:102BFC000102FB681A62FB689B693B613B6923F02D
:102C0C00F0033B617B681B013A6913433B617B69B1
:102C1C0023F00A037B617A69BB6813437B61FB6811
:102C2C003A699A61FB687A691A6200BF1C37BD4623
:102C3C0080BC704780B487B000AFF860B9607A6030
:102C4C00FB681B6A7B61FB681B6A23F01002FB6844
:102C5C001A62FB689B693B613B6923F470433B61DF
:102C6C007B681B033A6913433B617B6923F0A00328
:102C7C007B61BB681B017A6913437B61FB683A6912
:102C8C009A61FB687A691A6200BF1C37BD4680BC2A
:102C9C00704780B485B000AF786039607B689B6802
:102CAC00FB60FB6823F07003FB603A68FB6813431E
:102CBC0043F00703FB607B68FA689A6000BF143727
:102CCC00BD4680BC704780B487B000AFF860B96077
:102CDC007A603B60FB689B687B617B6923F47F4374
:102CEC007B613B681A027B681A43BB6813437A69A1
:102CFC0013437B61FB687A699A6000BF1C37BD4641
:102D0C0080BC704780B485B000AF786039607B6858
:102D1C0093F83C30012B01D1022341E07B68012266
:102D2C0083F83C207B68022283F83D207B681B687B
:102D3C005B68FB607B681B689B68BB60FB6823F06F
:102D4C007003FB603B681B68FA681343FB607B688D
:102D5C001B68FA685A607B681B68144A934209D056
:102D6C007B681B68B3F1804F04D07B681B68104AEA
:102D7C0093420CD1BB6823F08003BB603B685B685B
:102D8C00BA681343BB607B681B68BA689A607B683F
:102D9C00012283F83D207B68002283F83C2000232D
:102DAC0018461437BD4680BC704700BF002C01404C
:102DBC000004004080B483B000AF786000BF0C37D3
:102DCC00BD4680BC704780B483B000AF786000BF54
:102DDC000C37BD4680BC704703460244934200D179
:102DEC00704703F8011BF9E770B500260C4D0D4C2C
:102DFC00641BA410A64209D100F01AF800260A4D53
:102E0C000A4C641BA410A64205D170BD55F8043BB6
:102E1C0098470136EEE755F8043B98470136F2E740
:102E2C00782E0008782E0008782E00087C2E0008DA
:102E3C00F8B500BFF8BC08BC9E467047F8B500BF9B
:082E4C00F8BC08BC9E4670476B
:102E54000000000000000000010203040607080946
:102E640002030405060708090A0B0C0D0E0F1010C7
:042E74000102000057
:042E7800310100081C
:042E7C000D0100083C
:102E8000F40100002C010000C80000000024F40040
:082E9000100000000100000029
:04000005080017D503
:00000001FF
