:020000040800F2
:1000000000280020891B0008211600082716000878
:100010002D160008331600083916000800000000ED
:100020000000000000000000000000003F16000873
:100030004B16000800000000571600086316000861
:10004000D11B0008D11B0008D11B0008D11B0008E0
:10005000D11B0008D11B0008D11B0008D11B0008D0
:10006000D11B0008D11B0008D11B0008D11B0008C0
:10007000D11B0008D11B0008D11B0008D11B0008B0
:10008000D11B0008D11B0008D11B0008D11B0008A0
:10009000D11B0008D11B0008D11B0008D11B000890
:1000A000D11B0008D11B0008D11B0008D11B000880
:1000B00071160008D11B000800000000D11B0008C9
:1000C000D11B00080000000000000000D11B000848
:1000D00000000000D11B0008D11B00080000000038
:1000E000D11B0008D11B0008D11B00080000000034
:1000F0000000000000000000000000000000000000
:0C01000000000000000000005FF808F1A3
:10010C0010B5054C237833B9044B13B10448AFF345
:10011C0000800123237010BD64000020000000004B
:10012C00F031000808B5034B1BB103490348AFF38A
:10013C00008008BD0000000068000020F0310008BD
:10014C0080B400AF024B1B681846BD4680BC70479C
:10015C008000002080B500AF00F0CCF800F01AFA57
:10016C0000F006FA0346012B0ED13B4B1B68002B0B
:10017C0003D1394B01221A6006E0374B1B68012B67
:10018C0002D1354B00221A60344B1B68013B032B08
:10019C0057D801A252F823F0B5010008D701000886
:1001AC00FF010008270200082B4B1B68012B05D10F
:1001BC0000F0DEFE01F092FA01F0CEFB264B1B683C
:1001CC00002B40D100F0DCFE3DE0234B1B68012BE3
:1001DC0008D1234B1B68002B02D1214B32221A6011
:1001EC0000F05CF91C4B1B68002B2ED100F0C8FEF4
:1001FC002BE0194B1B68012B08D1194B1B68002BEA
:10020C0002D1174B32221A6000F048F9124B1B68CE
:10021C00002B1CD100F0B4FE19E00F4B1B68012B16
:10022C0008D10F4B1B68002B02D10D4B32221A60E8
:10023C0000F034F9084B1B68002B0AD100F0A0FE2B
:10024C0007E000BF06E000BF04E000BF02E000BF13
:10025C0000E000BF00BF80BD80000020180000201F
:10026C002000002080B500AFFFF76AFF0346002B8B
:10027C0035D11E4B1B68013B032B2FD801A252F822
:10028C0023F000BFA1020008B3020008C502000859
:10029C00D7020008012000F0CDF9144B1B6818465A
:1002AC0000F0F2F91BE0012000F0C4F90F4B1B68C1
:1002BC00184600F0E9F912E0012000F0BBF90B4BF5
:1002CC001B68184600F0E0F909E0012000F0B2F9D3
:1002DC00064B1B68184600F0D7F900E000BF034B33
:1002EC001B68034A136000BF80BD00BF00000020E4
:1002FC001800002080B500AF254B1B68254A136001
:10030C00254B1B68224A13604FF40051234801F01F
:10031C0047FF03461A46204B1A601E4B1A681C4BAB
:10032C001B689A422FD11A4B1A681B4B1B689A42B6
:10033C0029D11B4B1A68184B1B689A4217D0164BC5
:10034C001B68174A1360144B1B68002B1BD1154BF1
:10035C001B680133134A1360124B1B68042B02DD1C
:10036C00104B01221A60104BC8221A600BE00E4B86
:10037C001B68013B0C4A13600B4B1B68002B02D112
:10038C00074B01221A60FFF76DFF00BF80BD00BF55
:10039C0008000020040000200C0000200010014088
:1003AC0010000020000000201400002080B500AFD9
:1003BC00134B1B68042B18D0042B1EDC022B02D011
:1003CC00032B09D019E00F4B1B68642202FB03F3CB
:1003DC00184600F089FE11E00A4B1B68642202FBF0
:1003EC0003F3184600F08EFE08E0064B1B686422EF
:1003FC0002FB03F3184600F093FE00BF00BF80BD64
:10040C00180000201C00002080B500AF0E4B1B68AC
:10041C00184600F0C9FA0C4B1B680C4A52F82330F2
:10042C00184600F0EDFA084B1B68002B03D1064B65
:10043C0001221A6006E0044B1B68012B02D1024B0F
:10044C0000221A6000BF80BD8400002088000020BC
:10045C0080B400AF0E4B1B680E4A82FB0312921045
:10046C00DB17D31A0C4A1360094B1968094B83FB31
:10047C0001239A10CB17D21A13469B0013445B002E
:10048C00CA1A054B5A6000BFBD4680BC704700BFFE
:10049C001C000020676666668800002080B500AFEF
:1004AC002B4B1B682B4A13602B4B1B68284A136081
:1004BC004FF48041294801F073FE03461A46264B3F
:1004CC001A60244B1A68224B1B689A422FD1204B7E
:1004DC001A68214B1B689A4229D1214B1A681E4B72
:1004EC001B689A4217D01C4B1B681D4A13601A4B91
:1004FC001B68002B1BD11B4B1B680133194A136063
:10050C00184B1B68632B02DD164B01221A60164B2D
:10051C00C8221A600BE0144B1B68013B124A136093
:10052C00114B1B68002B02D10D4B01221A600F4B93
:10053C001B68013B0D4A1360FFF78AFFFFF736FF7C
:10054C000A4B1B68002B01D1FFF75EFF00BF80BD7B
:10055C0028000020240000202C0000200010014066
:10056C00300000201C00002034000020200000205F
:10057C0080B400AF064B1B68012B04D1044B002246
:10058C001A60012300E000231846BD4680BC70476A
:10059C009000002080B500AF1F4B1B681F4A1360F2
:1005AC001F4B1B681C4A13604FF400411D4801F09F
:1005BC00F7FD03461A461A4B1A60184B1A68164B6D
:1005CC001B689A4226D1144B1A68154B1B689A4229
:1005DC0020D1154B1A68124B1B689A420ED0104B47
:1005EC001B68114A13600E4B1B68002B12D10F4B6A
:1005FC0001221A600E4BC8221A600BE00C4B1B68D0
:10060C00013B0B4A13600A4B1B68002B02D1064BB3
:10061C0001221A6000BF80BD3C0000203800002081
:10062C0040000020001001404400002090000020F9
:10063C004800002080B582B000AF78607B68002B4A
:10064C0003D07B68012B0CD017E0002280210D48D1
:10065C0001F0BDFD01224FF480710A4801F0B7FD95
:10066C000BE001228021074801F0B1FD00224FF47C
:10067C008071044801F0ABFD00BF00BF0837BD46D8
:10068C0080BD00BF0008014080B582B000AF78602B
:10069C007B68092B00F2808101A252F823F000BF85
:1006AC00D50600081D07000865070008AD070008FF
:1006BC00F50700083D08000885080008CD0800086B
:1006CC00150900085D09000800220121B54801F058
:1006DC007EFD00220221B34801F079FD00220421A5
:1006EC00B04801F074FD00220821AE4801F06FFD06
:1006FC0000221021AB4801F06AFD00222021A948FC
:10070C0001F065FD01224021A64801F060FD44E1A5
:10071C0001220121A34801F05AFD00220221A14827
:10072C0001F055FD002204219E4801F050FD0122EC
:10073C0008219C4801F04BFD01221021994801F041
:10074C0046FD01222021974801F041FD0122402164
:10075C00944801F03CFD20E100220121914801F078
:10076C0036FD002202218F4801F031FD01220421C7
:10077C008C4801F02CFD002208218A4801F027FD4D
:10078C0000221021874801F022FD012220218548FA
:10079C0001F01DFD00224021824801F018FDFCE013
:1007AC00002201217F4801F012FD002202217D4828
:1007BC0001F00DFD002204217A4801F008FD002211
:1007CC000821784801F003FD01221021754801F041
:1007DC00FEFC01222021734801F0F9FC002240218B
:1007EC00704801F0F4FCD8E0012201216D4801F0C1
:1007FC00EEFC002202216B4801F0E9FC00220421EE
:10080C00684801F0E4FC01220821664801F0DFFC95
:10081C0001221021634801F0DAFC002220216148FA
:10082C0001F0D5FC002240215E4801F0D0FCB4E080
:10083C00002201215B4801F0CAFC01220221594827
:10084C0001F0C5FC00220421564801F0C0FC002236
:10085C000821544801F0BBFC01221021514801F041
:10086C00B6FC002220214F4801F0B1FC00224021AF
:10087C004C4801F0ACFC90E000220121494801F009
:10088C00A6FC01220221474801F0A1FC0022042110
:10089C00444801F09CFC00220821424801F097FCDE
:1008AC00002210213F4801F092FC002220213D48FB
:1008BC0001F08DFC002240213A4801F088FC6CE0EC
:1008CC0000220121374801F082FC00220221354828
:1008DC0001F07DFC00220421324801F078FC012259
:1008EC000821304801F073FC012210212D4801F041
:1008FC006EFC012220212B4801F069FC01224021D1
:10090C00284801F064FC48E000220121254801F050
:10091C005EFC00220221234801F059FC0022042134
:10092C00204801F054FC002208211E4801F04FFC25
:10093C00002210211B4801F04AFC002220211948FA
:10094C0001F045FC00224021164801F040FC24E057
:10095C0000220121134801F03AFC00220221114827
:10096C0001F035FC002204210E4801F030FC00227D
:10097C0008210C4801F02BFC01221021094801F040
:10098C0026FC00222021074801F021FC00224021F6
:10099C00044801F01CFC00E000BF00BF0837BD4656
:1009AC0080BD00BF000C014080B582B000AF786004
:1009BC007B68002B03D07B68012B0DD019E0002243
:1009CC004FF400710D4801F002FC01224FF48061DC
:1009DC000A4801F0FCFB0CE001224FF400710748BF
:1009EC0001F0F5FB00224FF48061044801F0EFFBAD
:1009FC0000BF00BF0837BD4680BD00BF00080140E6
:100A0C0080B582B000AF78607B68092B00F2BC81A6
:100A1C0001A252F823F000BF4D0A0008A10A0008F9
:100A2C00F50A0008490B00089D0B0008F10B0008A3
:100A3C00450C0008990C0008ED0C0008410D00084D
:100A4C0000228021D34801F0C2FB00224FF48071B8
:100A5C00D04801F0BCFB00224FF40071CD4801F0EE
:100A6C00B6FB00224FF48061CA4801F0B0FB0022B3
:100A7C004FF40061C74801F0AAFB00224FF48051EB
:100A8C00C44801F0A4FB01224FF40051C14801F00D
:100A9C009EFB7AE101228021BE4801F098FB0022E6
:100AAC004FF48071BB4801F092FB00224FF40071AF
:100ABC00B84801F08CFB01224FF48061B54801F07D
:100ACC0086FB01224FF40061B24801F080FB012249
:100ADC004FF48051AF4801F07AFB01224FF40051E2
:100AEC00AC4801F074FB50E100228021A94801F0D0
:100AFC006EFB00224FF48071A64801F068FB0122C6
:100B0C004FF40071A34801F062FB00224FF48061A6
:100B1C00A04801F05CFB00224FF400619D4801F0FD
:100B2C0056FB01224FF480519A4801F050FB0022F1
:100B3C004FF40051974801F04AFB26E10022802136
:100B4C00944801F044FB00224FF48071914801F06D
:100B5C003EFB00224FF400718E4801F038FB00225E
:100B6C004FF480618B4801F032FB01224FF400619D
:100B7C00884801F02CFB01224FF48051854801F08C
:100B8C0026FB00224FF40051824801F020FBFCE0D0
:100B9C00012280217F4801F01AFB00224FF4807162
:100BAC007C4801F014FB00224FF40071794801F0ED
:100BBC000EFB01224FF48061764801F008FB012204
:100BCC004FF40061734801F002FB00224FF4805196
:100BDC00704801F0FCFA00224FF400516D4801F00E
:100BEC00F6FAD2E0002280216A4801F0F0FA0122E4
:100BFC004FF48071674801F0EAFA00224FF400715B
:100C0C00644801F0E4FA00224FF48061614801F07D
:100C1C00DEFA01224FF400615E4801F0D8FA00229E
:100C2C004FF480515B4801F0D2FA00224FF400518E
:100C3C00584801F0CCFAA8E000228021554801F078
:100C4C00C6FA01224FF48071524801F0C0FA00221A
:100C5C004FF400714F4801F0BAFA00224FF4806152
:100C6C004C4801F0B4FA00224FF40061494801F0FD
:100C7C00AEFA00224FF48051464801F0A8FA002247
:100C8C004FF40051434801F0A2FA7EE0002280218B
:100C9C00404801F09CFA00224FF480713D4801F06D
:100CAC0096FA00224FF400713A4801F090FA0122B2
:100CBC004FF48061374801F08AFA01224FF4006149
:100CCC00344801F084FA01224FF48051314801F08C
:100CDC007EFA01224FF400512E4801F078FA54E0CC
:100CEC00002280212B4801F072FA00224FF480710F
:100CFC00284801F06CFA00224FF40071254801F0ED
:100D0C0066FA00224FF48061224801F060FA00225A
:100D1C004FF400611F4801F05AFA00224FF4805141
:100D2C001C4801F054FA00224FF40051194801F00C
:100D3C004EFA2AE000228021164801F048FA0022DF
:100D4C004FF48071134801F042FA00224FF4007105
:100D5C00104801F03CFA00224FF480610D4801F07C
:100D6C0036FA01224FF400610A4801F030FA0022F1
:100D7C004FF48051074801F02AFA00224FF4005139
:100D8C00044801F024FA00E000BF00BF0837BD465C
:100D9C0080BD00BF000C014080B500AF334B1B6819
:100DAC00032B5AD801A252F823F000BFC90D00083A
:100DBC00E90D0008130E00083D0E000800F0E0F8E5
:100DCC002A4B01221A602A4B1B683233294A1360C2
:100DDC00284B1B68184600F0E1FA45E0002000F0B3
:100DEC00F3F8254B1B68012B39D1204B02221A60DA
:100DFC00224B1B6832331F4A13601E4B1B6818466C
:100E0C0000F0CCFA2BE0012000F0DEF81A4B1B6846
:100E1C00012B26D1154B03221A60194B1B68323358
:100E2C00144A1360134B1B68184600F0B7FA18E00D
:100E3C00022000F0C9F8104B1B68012B13D10B4B8F
:100E4C0001221A600A4B1B6832330A4A1360094BA1
:100E5C001B68184600F0A2FA05E000BF04E000BFD2
:100E6C0002E000BF00E000BF00BF80BD9C0000207E
:100E7C004C00002094000020F800002050000020BE
:100E8C005400002080B500AF334B1B68032B5AD89D
:100E9C0001A252F823F000BFB50E0008D50E0008D1
:100EAC00FF0E0008290F000800F06AF82A4B0222F6
:100EBC001A602A4B1B683233294A1360284B1B6873
:100ECC00184600F07FFA45E0002000F0C5F8254BED
:100EDC001B68012B39D1204B02221A601F4B1B6857
:100EEC0032331F4A13601E4B1B68184600F06AFA17
:100EFC002BE0012000F0B0F81A4B1B68012B26D117
:100F0C00154B03221A60184B1B683233144A1360BA
:100F1C00134B1B68184600F055FA18E0022000F03D
:100F2C009BF8104B1B68012B13D10B4B01221A6041
:100F3C000E4B1B6832330A4A1360094B1B68184668
:100F4C0000F040FA05E000BF04E000BF02E000BF83
:100F5C0000E000BF00BF80BDA000002050000020BA
:100F6C009800002000010020540000204C000020BC
:100F7C0080B500AFFFF710FFFFF784FF00BF80BD07
:100F8C0080B500AF012201210E4801F020F90122A9
:100F9C0002210C4801F01BF901220421094801F03F
:100FAC0016F901220821074801F011F9012210213C
:100FBC00044801F00CF901222021024801F007F944
:100FCC0000BF80BD0008014080B582B000AF7860E2
:100FDC007B68022B29D07B68022B36DC7B68002BCC
:100FEC0003D07B68012B10D02FE00022012119487F
:100FFC0001F0EDF801220221164801F0E8F8012277
:10100C000421144801F0E3F820E0012201211148E9
:10101C0001F0DDF8002202210E4801F0D8F801227F
:10102C0004210C4801F0D3F810E0012201210948F9
:10103C0001F0CDF801220221064801F0C8F8002287
:10104C000421044801F0C3F800E000BF00BF0837DA
:10105C00BD4680BD0008014080B582B000AF78600D
:10106C007B68022B29D07B68022B36DC7B68002B3B
:10107C0003D07B68012B10D02FE0002208211948E7
:10108C0001F0A5F801221021164801F0A0F8012268
:10109C002021144801F09BF820E00122082111487E
:1010AC0001F095F8002210210E4801F090F8012271
:1010BC0020210C4801F08BF810E00122082109488E
:1010CC0001F085F801221021064801F080F8002279
:1010DC002021044801F07BF800E000BF00BF083776
:1010EC00BD4680BD0008014080B483B000AF78607D
:1010FC00034A7B68136000BF0C37BD4680BC704749
:10110C004C00002080B483B000AF7860034A7B6849
:10111C00136000BF0C37BD4680BC704750000020E8
:10112C0080B483B000AF7860034A7B68136000BF63
:10113C000C37BD4680BC70475400002080B500AF12
:10114C0000F042FD00F01EF800F0A4F800F056F894
:10115C00074801F083FC074B00221A60064B002263
:10116C001A60064B00221A60054B00221A60FEE73B
:10117C00AC0000209C000020A0000020A400002057
:10118C00A800002080B590B000AF07F1180328220A
:10119C000021184601F0FAFF3B1D00221A605A602C
:1011AC009A60DA601A610223BB610123BB621023CF
:1011BC00FB6200237B6307F11803184601F020F84B
:1011CC000346002B01D000F0E3F80F237B600023D3
:1011DC00BB600023FB6000233B6100237B613B1D54
:1011EC000021184601F08EFA0346002B01D000F0C6
:1011FC00CFF800BF4037BD4680BD000080B586B03B
:10120C0000AF07F1080300221A605A609A60DA6096
:10121C003B4600221A605A601D4B4FF080421A6008
:10122C001B4B41F63F725A60194B00229A60184BC7
:10123C000922DA60164B00221A61154B00229A61C2
:10124C00134801F0BBFB0346002B01D000F0A0F8C3
:10125C004FF48053BB6007F1080319460C4801F0AA
:10126C0051FD0346002B01D000F092F800233B60A7
:10127C0000237B603B461946054801F01DFF0346E1
:10128C00002B01D000F084F800BF1837BD4680BD9C
:10129C00AC00002080B588B000AF07F1100300222D
:1012AC001A605A609A60DA602F4B9B692E4A43F0A1
:1012BC00100393612C4B9B6903F01003FB60FB68DC
:1012CC00294B9B69284A43F004039361264B9B6985
:1012DC0003F00403BB60BB68234B9B69224A43F0B9
:1012EC0008039361204B9B6903F008037B607B68C8
:1012FC00002240F2BF711D4800F069FF002243F646
:10130C00FF711B4800F063FF4FF460433B61002307
:10131C007B610123BB6107F110031946154800F0EE
:10132C00C3FD40F2BF733B6101237B610023BB61B2
:10133C000223FB6107F1100319460C4800F0B4FDC1
:10134C0043F6FF733B6101237B610023BB610223E6
:10135C00FB6107F110031946054800F0A5FD00BF1D
:10136C002037BD4680BD00BF001002400008014080
:10137C00000C01400010014080B582B000AF7860D5
:10138C0000F084F8FEF7E6FE00BF0837BD4680BDCE
:10139C0080B400AF72B600BFFEE7000080B483B02B
:1013AC0000AF7860054A7B681360054B00221A6019
:1013BC0000BF0C37BD4680BC704700BFF400002056
:1013CC00F800002080B483B000AF7860054A7B68D9
:1013DC001360054B00221A6000BF0C37BD4680BC61
:1013EC00704700BFFC0000200001002080B483B0D7
:1013FC0000AF7860054A7B681360054B00221A60C9
:10140C0000BF0C37BD4680BC704700BF04010020F4
:10141C000801002080B483B000AF7860054A7B6877
:10142C001360054B00221A6000BF0C37BD4680BC10
:10143C00704700BF0C0100201001002080B483B065
:10144C0000AF7860054A7B681360054B00221A6078
:10145C0000BF0C37BD4680BC704700BF1401002094
:10146C001801002080B483B000AF7860054A7B6817
:10147C001360054B00221A6000BF0C37BD4680BCC0
:10148C00704700BF1C0100202001002080B400AF79
:10149C00314B1B68002B04DD2F4B1B68013B2E4A84
:1014AC0013602D4B1B68002B02DC2C4B01221A60A5
:1014BC002B4B1B68002B04DD294B1B68013B284A76
:1014CC001360274B1B68002B02DC264B01221A6091
:1014DC00254B1B68002B04DD234B1B68013B224A68
:1014EC001360214B1B68002B02DC204B01221A607D
:1014FC001F4B1B68002B04DD1D4B1B68013B1C4A5A
:10150C0013601B4B1B68002B02DC1A4B01221A6068
:10151C00194B1B68002B04DD174B1B68013B164A4B
:10152C001360154B1B68002B02DC144B01221A6054
:10153C00134B1B68002B04DD114B1B68013B104A3D
:10154C0013600F4B1B68002B02DC0E4B01221A6040
:10155C0000BFBD4680BC7047F4000020F80000209E
:10156C00FC000020000100200401002008010020E4
:10157C000C01002010010020140100201801002093
:10158C001C0100202001002080B483B000AF0E4B62
:10159C009B690D4A43F0010393610B4B9B6903F06C
:1015AC0001037B607B68084BDB69074A43F080537F
:1015BC00D361054BDB6903F080533B603B6800BF94
:1015CC000C37BD4680BC70470010024080B584B01B
:1015DC0000AF78607B681B68B3F1804F13D10C4B64
:1015EC00DB690B4A43F00103D361094BDB6903F060
:1015FC000103FB60FB68002200211C2000F01DFC95
:10160C001C2000F036FC00BF1037BD4680BD00BF6B
:10161C000010024080B400AFFEE780B400AFFEE7DC
:10162C0080B400AFFEE780B400AFFEE780B400AF3B
:10163C00FEE780B400AF00BFBD4680BC704780B4ED
:10164C0000AF00BFBD4680BC704780B400AF00BF88
:10165C00BD4680BC704780B500AF00F0FBFA00BF00
:10166C0080BD000080B500AF024801F043FA00BF16
:10167C0080BD00BFAC00002080B400AF00BFBD46F1
:10168C0080BC704780B483B000AF114B1B68114A0B
:10169C0082FB03129210DB17D31A7B600C4B1A6877
:1016AC000C4B83FB02139910D317C91A0B469B00E2
:1016BC000B445B00D31A3B60074A7B681360064AF5
:1016CC003B68536000BF0C37BD4680BC704700BF01
:1016DC0024010020676666662C01002080B500AFEF
:1016EC007D4B1B68032B00F2EE8001A252F823F015
:1016FC000D17000839170008C31700084B1800080D
:10170C00764B1B68764A82FB03125211DB17D31AF5
:10171C00744A1360FFF7B6FF6F4B01221A60322038
:10172C00FFF764FE6420FFF775FED3E06E4B1B6879
:10173C00012B1FD13220FFF759FE6C4B1B68012B7C
:10174C0011DC6A4B1B681846FEF774FF674B1B686D
:10175C00674A52F823301846FEF796FF634B1B6816
:10176C000133624A1360614B1B68012B02DD5F4B36
:10177C0000221A605F4B1B68012B40F0A68064208E
:10178C00FFF748FE574B1B68013B564A1360554BFD
:10179C001B68002B0CDC504B02221A60564B1B684A
:1017AC004F4A82FB03125211DB17D31A4D4A1360B6
:1017BC00FFF768FF89E04C4B1B68012B1FD13220CF
:1017CC00FFF714FE494B1B68012B11DC474B1B68C0
:1017DC001846FEF72FFF454B1B68454A52F823303D
:1017EC001846FEF751FF414B1B6801333F4A13600B
:1017FC003E4B1B68012B02DD3C4B00221A603D4B1B
:10180C001B68012B63D16420FFF704FE354B1B686A
:10181C00013B344A1360334B1B68002B0CDC2E4B02
:10182C0003221A60354B1B682D4A82FB031252119E
:10183C00DB17D31A2B4A1360FFF724FF47E02A4B20
:10184C001B68012B1FD13220FFF7D0FD274B1B68E3
:10185C00012B11DC254B1B681846FEF7EBFE234BC6
:10186C001B68234A52F823301846FEF70DFF1F4B16
:10187C001B6801331D4A13601C4B1B68012B02DDD6
:10188C001A4B00221A601B4B1B68012B21D16420C0
:10189C00FFF7C0FD134B1B68013B124A1360114B41
:1018AC001B68002B0CDC0C4B01221A600B4B1B68C9
:1018BC000B4A82FB03125211DB17D31A094A13602D
:1018CC00FFF7E0FE05E000BF04E000BF02E000BF50
:1018DC0000E000BF00BF80BDA40000204C00002031
:1018EC001F85EB5124010020080100202801002055
:1018FC002C0100201001002050000020540000207A
:10190C0080B483B000AF114B1B68114A82FB0312E9
:10191C009210DB17D31A7B600C4B1A680C4B83FBB1
:10192C0002139910D317C91A0B469B000B445B008A
:10193C00D31A3B60074A7B681360064A3B685360C6
:10194C0000BF0C37BD4680BC704700BF340100207F
:10195C00676666663C01002080B500AF7D4B1B6856
:10196C00032B00F2EE8001A252F823F08919000833
:10197C00B51900083F1A0008C71A0008764B1B68F7
:10198C00764A82FB03125211DB17D31A744A136086
:10199C00FFF7B6FF6F4B02221A603220FFF74EFDA5
:1019AC006420FFF75FFDD3E06E4B1B68012B1FD14A
:1019BC003220FFF743FD6C4B1B68012B11DC6A4B8B
:1019CC001B681846FEF7F0FF674B1B68674A52F816
:1019DC0023301846FFF714F8634B1B680133624A37
:1019EC001360614B1B68012B02DD5F4B00221A60F8
:1019FC005F4B1B68012B40F0A6806420FFF732FD83
:101A0C00574B1B68013B564A1360554B1B68002B08
:101A1C000CDC504B02221A604F4B1B684F4A82FB66
:101A2C0003125211DB17D31A4D4A1360FFF768FFEC
:101A3C0089E04C4B1B68012B1FD13220FFF7FEFCB9
:101A4C00494B1B68012B11DC474B1B681846FEF7F2
:101A5C00ABFF454B1B68454A52F823301846FEF73E
:101A6C00CFFF414B1B6801333F4A13603E4B1B6851
:101A7C00012B02DD3C4B00221A603D4B1B68012BF5
:101A8C0063D16420FFF7EEFC354B1B68013B344AF5
:101A9C001360334B1B68002B0CDC2E4B03221A609B
:101AAC00344B1B682D4A82FB03125211DB17D31ADD
:101ABC002B4A1360FFF724FF47E02A4B1B68012BCE
:101ACC001FD13220FFF7BAFC274B1B68012B11DC0E
:101ADC00254B1B681846FEF767FF234B1B68234AF0
:101AEC0052F823301846FEF78BFF1F4B1B6801334F
:101AFC001D4A13601C4B1B68012B02DD1A4B002284
:101B0C001A601B4B1B68012B21D16420FFF7AAFC28
:101B1C00134B1B68013B124A1360114B1B68002BC3
:101B2C000CDC0C4B01221A60134B1B680B4A82FB1A
:101B3C0003125211DB17D31A094A1360FFF7E0FEA8
:101B4C0005E000BF04E000BF02E000BF00E000BF02
:101B5C0000BF80BDA8000020500000201F85EB5165
:101B6C003401002018010020380100203C01002025
:101B7C0020010020540000204C000020FFF77CFDC9
:101B8C000B480C490C4A002302E0D458C4500433CF
:101B9C00C4188C42F9D3094A094C002301E01360A4
:101BAC000432A242FBD301F0F9FAFFF7C7FA7047EF
:101BBC000000002064000020343200086400002083
:101BCC0048010020FEE7000080B500AF084B1B6801
:101BDC00074A43F010031360032000F023F90F2091
:101BEC0000F008F8FFF7D0FC0023184680BD00BFBA
:101BFC000020024080B582B000AF7860124B1A68AA
:101C0C00124B1B7819464FF47A73B3FBF1F3B2FB0A
:101C1C00F3F3184600F03BF90346002B01D00123E7
:101C2C000EE07B680F2B0AD8002279684FF0FF304A
:101C3C0000F003F9064A7B681360002300E00123DF
:101C4C0018460837BD4680BD5800002060000020B3
:101C5C005C00002080B400AF054B1B781A46054B86
:101C6C001B681344034A136000BFBD4680BC704719
:101C7C00600000204401002080B400AF024B1B68C0
:101C8C001846BD4680BC70474401002080B485B026
:101C9C0000AF78607B6803F00703FB600C4BDB68DC
:101CAC00BB60BA684FF6FF031340BB60FB681A02B7
:101CBC00BB68134343F0BF6343F40033BB60044A77
:101CCC00BB68D36000BF1437BD4680BC704700BFF3
:101CDC0000ED00E080B400AF044BDB681B0A03F09E
:101CEC0007031846BD4680BC704700BF00ED00E0FE
:101CFC0080B483B000AF0346FB7197F90730002B1B
:101D0C000BDBFB7903F01F02064997F907305B09DF
:101D1C00012000FA02F241F8232000BF0C37BD4627
:101D2C0080BC704700E100E080B483B000AF034694
:101D3C003960FB7197F90730002B0ADB3B68DAB28C
:101D4C000C4997F907301201D2B20B4483F80023E7
:101D5C000AE03B68DAB20849FB7903F00F03043B55
:101D6C001201D2B20B441A7600BF0C37BD4680BCB0
:101D7C00704700BF00E100E000ED00E080B489B0E6
:101D8C0000AFF860B9607A60FB6803F00703FB6191
:101D9C00FB69C3F10703042B28BF0423BB61FB6958
:101DAC000433062B02D9FB69033B00E000237B6163
:101DBC004FF0FF32BB6902FA03F3DA43BB681A40F7
:101DCC007B699A404FF0FF317B6901FA03F3D943E9
:101DDC007B680B40134318462437BD4680BC7047C4
:101DEC0080B582B000AF78607B68013BB3F1807F37
:101DFC0001D301230FE00A4A7B68013B53600F219A
:101E0C004FF0FF30FFF790FF054B00229A60044B18
:101E1C0007221A60002318460837BD4680BD00BF54
:101E2C0010E000E080B582B000AF78607868FFF712
:101E3C002DFF00BF0837BD4680BD80B586B000AF12
:101E4C000346B9607A60FB7300237B61FFF742FFA6
:101E5C0078617A68B9687869FFF790FF024697F95C
:101E6C000F3011461846FFF75FFF00BF1837BD460D
:101E7C0080BD80B582B000AF0346FB7197F9073087
:101E8C001846FFF735FF00BF0837BD4680BD80B54B
:101E9C0082B000AF78607868FFF7A2FF034618465F
:101EAC000837BD4680BD000080B48BB000AF7860B1
:101EBC00396000237B6200233B6261E101227B6A73
:101ECC0002FA03F3FB613B681B68FA691340BB61C0
:101EDC00BA69FB699A4240F050813B685B68974A4B
:101EEC0093425ED0954A934275D8954A934258D006
:101EFC00934A93426FD8934A934252D0914A934259
:101F0C0069D8914A93424CD08F4A934263D88F4AF6
:101F1C00934246D08D4A93425DD8122B2AD8122B6D
:101F2C0059D801A252F823F0AF1F0008891F0008EE
:101F3C009B1F0008DD1F0008E31F0008E31F0008BB
:101F4C00E31F0008E31F0008E31F0008E31F00085D
:101F5C00E31F0008E31F0008E31F0008E31F00084D
:101F6C00E31F0008E31F0008E31F0008911F00088F
:101F7C00A51F0008764A934213D02CE03B68DB681F
:101F8C003B6229E03B68DB6804333B6224E03B683E
:101F9C00DB6808333B621FE03B68DB680C333B6259
:101FAC001AE03B689B68002B02D104233B6213E0D0
:101FBC003B689B68012B05D108233B627B68FA695F
:101FCC001A6109E008233B627B68FA695A6103E0F5
:101FDC0000233B6200E000BFBB69FF2B01D87B688C
:101FEC0001E07B6804337B61BB69FF2B02D87B6A01
:101FFC009B0002E07B6A083B9B003B617B691A6893
:10200C000F213B6901FA03F3DB431A40396A3B6940
:10201C0001FA03F31A437B691A603B685B6803F0AF
:10202C008053002B00F0A9804A4B9B69494A43F02E
:10203C0001039361474B9B6903F00103BB60BB68D1
:10204C00454A7B6A9B08023352F82330FB607B6A5B
:10205C0003F003039B000F2202FA03F3DB43FA683D
:10206C001340FB607B683D4A93420DD07B683C4A31
:10207C00934207D07B683B4A934201D1022304E090
:10208C00032302E0012300E000237A6A02F003023A
:10209C0092009340FA681343FB602F497B6A9B08BC
:1020AC000233FA6841F823203B685B6803F4801321
:1020BC00002B06D02C4B9A682B49BB6913438B60C1
:1020CC0006E0294B9A68BB69DB43274913408B60B8
:1020DC003B685B6803F40013002B06D0224BDA68D4
:1020EC002149BB691343CB6006E01F4BDA68BB691F
:1020FC00DB431D491340CB603B685B6803F4003342
:10210C00002B06D0184B5A681749BB6913434B6018
:10211C0006E0154B5A68BB69DB43134913404B600F
:10212C003B685B6803F48033002B1FD00E4B1A689E
:10213C000D49BB6913430B601FE000BF0000321058
:10214C0000003110000022100000211000001210BD
:10215C000000111000100240000001400008014076
:10216C00000C014000100140000401400B4B1A68A8
:10217C00BB69DB43094913400B607B6A01337B620B
:10218C003B681A687B6A22FA03F3002B7FF496AE45
:10219C0000BF00BF2C37BD4680BC70470004014017
:1021AC0080B485B000AF78600B467B807B689A6802
:1021BC007B881340002B02D00123FB7301E000232A
:1021CC00FB73FB7B18461437BD4680BC704780B44C
:1021DC0083B000AF78600B467B8013467B707B78B6
:1021EC00002B03D07A887B681A6103E07B881A0481
:1021FC007B681A6100BF0C37BD4680BC704700007D
:10220C0080B586B000AF78607B68002B01D10123CC
:10221C0072E27B681B6803F00103002B00F08780DF
:10222C00924B5B6803F00C03042B0CD08F4B5B6858
:10223C0003F00C03082B12D18C4B5B6803F4803336
:10224C00B3F5803F0BD1894B1B6803F40033002B93
:10225C006CD07B685B68002B68D101234CE27B68F7
:10226C005B68B3F5803F06D1804B1B687F4A43F413
:10227C00803313602EE07B685B68002B0CD17B4BAA
:10228C001B687A4A23F480331360784B1B68774AB7
:10229C0023F4802313601DE07B685B68B3F5A02FEB
:1022AC000CD1724B1B68714A43F4802313606F4B43
:1022BC001B686E4A43F4803313600BE06B4B1B6856
:1022CC006A4A23F480331360684B1B68674A23F413
:1022DC00802313607B685B68002B13D0FFF7CCFC6A
:1022EC00386108E0FFF7C8FC02463B69D31A642B3F
:1022FC0001D9032300E25D4B1B6803F40033002B70
:10230C00F0D014E0FFF7B8FC386108E0FFF7B4FC3C
:10231C0002463B69D31A642B01D90323ECE1534BDE
:10232C001B6803F40033002BF0D100E000BF7B6886
:10233C001B6803F00203002B63D04C4B5B6803F06B
:10234C000C03002B0BD0494B5B6803F00C03082BE0
:10235C001CD1464B5B6803F48033002B16D1434BE6
:10236C001B6803F00203002B05D07B681B69012B53
:10237C0001D00123C0E13D4B1B6823F0F8027B68C0
:10238C005B69DB00394913430B603AE07B681B69DE
:10239C00002B20D0364B01221A60FFF76DFC386100
:1023AC0008E0FFF769FC02463B69D31A022B01D9FE
:1023BC000323A1E12D4B1B6803F00203002BF0D08B
:1023CC002A4B1B6823F0F8027B685B69DB0027490A
:1023DC0013430B6015E0264B00221A60FFF74CFCF0
:1023EC00386108E0FFF748FC02463B69D31A022B20
:1023FC0001D9032380E11D4B1B6803F00203002B62
:10240C00F0D17B681B6803F00803002B3AD07B6883
:10241C009B69002B19D0174B01221A60FFF72CFC7B
:10242C00386108E0FFF728FC02463B69D31A022BFF
:10243C0001D9032360E10D4B5B6A03F00203002B0F
:10244C00F0D0012000F09CFA1CE00A4B00221A602C
:10245C00FFF712FC38610FE0FFF70EFC02463B69F8
:10246C00D31A022B08D9032346E100BF0010024007
:10247C000000424280044242924B5B6A03F002032A
:10248C00002BE9D17B681B6803F00403002B00F0E0
:10249C00A6800023FB758B4BDB6903F08053002B6C
:1024AC000DD1884BDB69874A43F08053D361854B50
:1024BC00DB6903F08053BB60BB680123FB75824B67
:1024CC001B6803F48073002B18D17F4B1B687E4A6A
:1024DC0043F480731360FFF7CFFB386108E0FFF71C
:1024EC00CBFB02463B69D31A642B01D9032303E1CE
:1024FC00754B1B6803F48073002BF0D07B68DB6892
:10250C00012B06D16F4B1B6A6E4A43F00103136219
:10251C002DE07B68DB68002B0CD16A4B1B6A694A87
:10252C0023F001031362674B1B6A664A23F0040312
:10253C0013621CE07B68DB68052B0CD1614B1B6ABA
:10254C00604A43F0040313625E4B1B6A5D4A43F01E
:10255C00010313620BE05B4B1B6A5A4A23F0010325
:10256C001362584B1B6A574A23F0040313627B68AF
:10257C00DB68002B15D0FFF77FFB38610AE0FFF713
:10258C007BFB02463B69D31A41F28832934201D954
:10259C000323B1E04B4B1B6A03F00203002BEED07C
:1025AC0014E0FFF769FB38610AE0FFF765FB0246B0
:1025BC003B69D31A41F28832934201D903239BE041
:1025CC00404B1B6A03F00203002BEED1FB7D012B69
:1025DC0005D13C4BDB693B4A23F08053D3617B68CC
:1025EC00DB69002B00F08780364B5B6803F00C0333
:1025FC00082B61D07B68DB69022B46D1334B002260
:10260C001A60FFF739FB386108E0FFF735FB02462B
:10261C003B69D31A022B01D903236DE0294B1B68AC
:10262C0003F00073002BF0D17B681B6AB3F5803F7D
:10263C0008D1244B5B6823F400327B689B682149EA
:10264C0013434B601F4B5B6823F474127B68196A4D
:10265C007B685B6A0B431B4913434B601B4B01228A
:10266C001A60FFF709FB386108E0FFF705FB02462B
:10267C003B69D31A022B01D903233DE0114B1B6894
:10268C0003F00073002BF0D035E0104B00221A60E1
:10269C00FFF7F2FA386108E0FFF7EEFA02463B6901
:1026AC00D31A022B01D9032326E0064B1B6803F037
:1026BC000073002BF0D11EE07B68DB69012B07D186
:1026CC00012319E0001002400070004060004242FB
:1026DC000B4B5B68FB60FB6803F480327B681B6A06
:1026EC009A4206D1FB6803F470127B685B6A9A42CB
:1026FC0001D0012300E0002318461837BD4680BDE9
:10270C000010024080B584B000AF786039607B68FF
:10271C00002B01D10123D0E06A4B1B6803F00703A7
:10272C003A689A4210D9674B1B6823F00702654937
:10273C003B6813430B60634B1B6803F007033A6859
:10274C009A4201D00123B8E07B681B6803F00203B6
:10275C00002B20D07B681B6803F00403002B05D0F2
:10276C00594B5B68584A43F4E06353607B681B68C1
:10277C0003F00803002B05D0534B5B68524A43F41B
:10278C0060535360504B5B6823F0F0027B689B688E
:10279C004D4913434B607B681B6803F00103002B0E
:1027AC0040D07B685B68012B07D1474B1B6803F457
:1027BC000033002B15D101237FE07B685B68022B73
:1027CC0007D1414B1B6803F00073002B09D1012387
:1027DC0073E03D4B1B6803F00203002B01D1012376
:1027EC006BE0394B5B6823F003027B685B6836490E
:1027FC0013434B60FFF740FAF8600AE0FFF73CFA2E
:10280C000246FB68D31A41F28832934201D9032362
:10281C0053E02D4B5B6803F00C027B685B689B00FC
:10282C009A42EBD1274B1B6803F007033A689A4294
:10283C0010D2244B1B6823F0070222493B68134338
:10284C000B60204B1B6803F007033A689A4201D0D7
:10285C00012332E07B681B6803F00403002B08D0D3
:10286C00194B5B6823F4E0627B68DB681649134301
:10287C004B607B681B6803F00803002B09D0124BDC
:10288C005B6823F460527B681B69DB000E491343C1
:10289C004B6000F021F802460B4B5B681B0903F000
:1028AC000F030A49CB5C22FA03F3094A1360094B64
:1028BC001B681846FFF79EF9002318461037BD46D3
:1028CC0080BD00BF0020024000100240083200080A
:1028DC00580000205C00002080B487B000AF0023BB
:1028EC00FB600023BB6000237B6100237B60002323
:1028FC003B611E4B5B68FB60FB6803F00C03042B15
:10290C0002D0082B03D027E0194B3B6127E0FB6872
:10291C009B0C03F00F03174AD35C7B60FB6803F43A
:10292C008033002B10D0114B5B685B0C03F0010360
:10293C00114AD35CBB607B680D4A03FB02F2BB6897
:10294C00B2FBF3F37B6104E07B680C4A02FB03F3FC
:10295C007B617B693B6102E0054B3B6100BF3B69DE
:10296C0018461C37BD4680BC704700BF00100240A3
:10297C0000127A00183200082832000800093D00C5
:10298C0080B485B000AF78600A4B1B680A4AA2FB82
:10299C0003235B0A7A6802FB03F3FB6000BFFB684E
:1029AC005A1EFA60002BF9D100BF00BF1437BD4688
:1029BC0080BC704758000020D34D621080B582B0A7
:1029CC0000AF78607B68002B01D1012341E07B686C
:1029DC0093F83D30DBB2002B06D17B68002283F8E4
:1029EC003C207868FEF7F2FD7B68022283F83D20DC
:1029FC007B681A687B6804331946104600F06EFA3F
:102A0C007B68012283F846207B68012283F83E20F4
:102A1C007B68012283F83F207B68012283F84020E9
:102A2C007B68012283F841207B68012283F84220D5
:102A3C007B68012283F843207B68012283F84420C1
:102A4C007B68012283F845207B68012283F83D20B6
:102A5C00002318460837BD4680BD000080B485B001
:102A6C0000AF78607B6893F83D30DBB2012B01D06E
:102A7C00012335E07B68022283F83D207B681B68CC
:102A8C00DA687B681B6842F00102DA607B681B68BD
:102A9C00164A934209D07B681B68B3F1804F04D06F
:102AAC007B681B68124A934211D17B681B689B6838
:102ABC0003F00703FB60FB68062B10D07B681B68D8
:102ACC001A687B681B6842F001021A6007E07B6899
:102ADC001B681A687B681B6842F001021A600023AD
:102AEC0018461437BD4680BC704700BF002C01400F
:102AFC000004004080B582B000AF78607B681B6832
:102B0C001B6903F00203022B22D17B681B68DB6874
:102B1C0003F00203022B1BD17B681B686FF00202CF
:102B2C001A617B6801221A777B681B689B6903F02A
:102B3C000303002B03D0786800F0B4F905E0786843
:102B4C0000F0A7F9786800F0B6F97B6800221A77D4
:102B5C007B681B681B6903F00403042B22D17B6880
:102B6C001B68DB6803F00403042B1BD17B681B6818
:102B7C006FF004021A617B6802221A777B681B686B
:102B8C009B6903F44073002B03D0786800F08AF93A
:102B9C0005E0786800F07DF9786800F08CF97B68C6
:102BAC0000221A777B681B681B6903F00803082B4B
:102BBC0022D17B681B68DB6803F00803082B1BD150
:102BCC007B681B686FF008021A617B6804221A7715
:102BDC007B681B68DB6903F00303002B03D0786868
:102BEC0000F060F905E0786800F053F9786800F0BF
:102BFC0062F97B6800221A777B681B681B6903F0FB
:102C0C001003102B22D17B681B68DB6803F01003C8
:102C1C00102B1BD17B681B686FF010021A617B684C
:102C2C0008221A777B681B68DB6903F44073002B5E
:102C3C0003D0786800F036F905E0786800F029F9DF
:102C4C00786800F038F97B6800221A777B681B687B
:102C5C001B6903F00103012B0ED17B681B68DB6839
:102C6C0003F00103012B07D17B681B686FF0010295
:102C7C001A617868FEF780FB7B681B681B6903F0A0
:102C8C008003802B0ED17B681B68DB6803F080030C
:102C9C00802B07D17B681B686FF080021A61786803
:102CAC0000F06BFA7B681B681B6903F04003402B38
:102CBC000ED17B681B68DB6803F04003402B07D107
:102CCC007B681B686FF040021A61786800F0FCF8B2
:102CDC007B681B681B6903F02003202B0ED17B68DB
:102CEC001B68DB6803F02003202B07D17B681B6873
:102CFC006FF020021A61786800F036FA00BF0837CE
:102D0C00BD4680BD80B584B000AF786039600023CB
:102D1C00FB737B6893F83C30012B01D10223B4E0A8
:102D2C007B68012283F83C207B68022283F83D20DB
:102D3C007B681B689B68BB60BB6823F07703BB6038
:102D4C00BB6823F47F43BB607B681B68BA689A60DE
:102D5C003B681B68B3F5005F3ED0B3F5005F00F233
:102D6C008780B3F5805F00F08680B3F5805F7FD8F5
:102D7C00702B1AD0702B7BD8602B50D0602B77D84F
:102D8C00502B3CD0502B73D8402B58D0402B6FD8A5
:102D9C00302B64D0302B6BD8202B60D0202B67D8F5
:102DAC00002B5CD0102B5AD062E07B6818683B6813
:102DBC0099683B685A683B68DB6800F05EF97B6891
:102DCC001B689B68BB60BB6843F07703BB607B6888
:102DDC001B68BA689A604FE07B6818683B68996812
:102DEC003B685A683B68DB6800F047F97B681B68F6
:102DFC009A687B681B6842F480429A603CE07B686E
:102E0C0018683B6859683B68DB681A4600F0BEF8E6
:102E1C007B681B685021184600F015F92CE07B6884
:102E2C0018683B6859683B68DB681A4600F0DCF8A8
:102E3C007B681B686021184600F005F91CE07B6874
:102E4C0018683B6859683B68DB681A4600F09EF8C6
:102E5C007B681B684021184600F0F5F80CE07B6895
:102E6C001A683B681B681946104600F0ECF803E042
:102E7C000123FB7300E000BF7B68012283F83D2037
:102E8C007B68002283F83C20FB7B18461037BD463C
:102E9C0080BD80B483B000AF786000BF0C37BD46F6
:102EAC0080BC704780B483B000AF786000BF0C3733
:102EBC00BD4680BC704780B483B000AF786000BF63
:102ECC000C37BD4680BC704780B483B000AF7860CF
:102EDC0000BF0C37BD4680BC7047000080B485B085
:102EEC0000AF786039607B681B68FB607B68254AA3
:102EFC00934207D07B68B3F1804F03D07B68224AA2
:102F0C00934208D1FB6823F07003FB603B685B685D
:102F1C00FA681343FB607B681A4A934207D07B68BC
:102F2C00B3F1804F03D07B68174A934208D1FB68FA
:102F3C0023F44073FB603B68DB68FA681343FB6067
:102F4C00FB6823F080023B685B691343FB607B6882
:102F5C00FA681A603B689A687B68DA623B681A68A0
:102F6C007B689A627B68074A934203D13B681A6973
:102F7C007B681A637B6801225A6100BF1437BD4617
:102F8C0080BC7047002C01400004004080B487B026
:102F9C0000AFF860B9607A60FB681B6A7B61FB6804
:102FAC001B6A23F00102FB681A62FB689B693B6198
:102FBC003B6923F0F0033B617B681B013A691343C7
:102FCC003B617B6923F00A037B617A69BB6813431D
:102FDC007B61FB683A699A61FB687A691A6200BF87
:102FEC001C37BD4680BC704780B487B000AFF8601A
:102FFC00B9607A60FB681B6A7B61FB681B6A23F013
:10300C001002FB681A62FB689B693B613B6923F405
:10301C0070433B617B681B033A6913433B617B69DB
:10302C0023F0A0037B61BB681B017A6913437B61AE
:10303C00FB683A699A61FB687A691A6200BF1C37AF
:10304C00BD4680BC704780B485B000AF78603960F5
:10305C007B689B68FB60FB6823F07003FB603A683D
:10306C00FB68134343F00703FB607B68FA689A60C4
:10307C0000BF1437BD4680BC704780B487B000AF2A
:10308C00F860B9607A603B60FB689B687B617B6928
:10309C0023F47F437B613B681A027B681A43BB684D
:1030AC0013437A6913437B61FB687A699A6000BFAA
:1030BC001C37BD4680BC704780B485B000AF7860CB
:1030CC0039607B6893F83C30012B01D1022341E03D
:1030DC007B68012283F83C207B68022283F83D2028
:1030EC007B681B685B68FB607B681B689B68BB60CC
:1030FC00FB6823F07003FB603B681B68FA681343A2
:10310C00FB607B681B68FA685A607B681B68144A12
:10311C00934209D07B681B68B3F1804F04D07B6865
:10312C001B68104A93420CD1BB6823F08003BB6030
:10313C003B685B68BA681343BB607B681B68BA6802
:10314C009A607B68012283F83D207B68002283F81B
:10315C003C20002318461437BD4680BC704700BF86
:10316C00002C01400004004080B483B000AF7860B4
:10317C0000BF0C37BD4680BC704780B483B000AF35
:10318C00786000BF0C37BD4680BC704703460244D4
:10319C00934200D1704703F8011BF9E770B5002684
:1031AC000C4D0D4C641BA410A64209D100F01AF86A
:1031BC0000260A4D0A4C641BA410A64205D170BD12
:1031CC0055F8043B98470136EEE755F8043B984711
:1031DC000136F2E72C3200082C3200082C320008A1
:1031EC0030320008F8B500BFF8BC08BC9E467047EA
:0C31FC00F8B500BFF8BC08BC9E46704748
:10320800000000000000000001020304060708098E
:1032180002030405060708090A0B0C0D0E0F10100F
:04322800010200009F
:04322C003101000864
:043230000D01000884
:103234000100000001000000010000000100000086
:1032440001000000C80000000100000001000000AF
:103254003200000001000000010000000100000035
:1032640001000000C800000001000000010000008F
:103274000100000001000000C8000000F40100008B
:103284002C010000C80000000024F400100000001D
:043294000100000035
:0400000508001B894B
:00000001FF
