:020000040800F2
:100000000028002045140008BD0E0008C30E00089B
:10001000C90E0008CF0E0008D50E00080000000031
:10002000000000000000000000000000DB0E0008DF
:10003000E70E000800000000F30E0008FF0E0008A5
:100040008D1400088D1400088D1400088D1400080C
:100050008D1400088D1400088D1400088D140008FC
:100060008D1400088D1400088D1400088D140008EC
:100070008D1400088D1400088D1400088D140008DC
:100080008D1400088D1400088D1400088D140008CC
:100090008D1400088D1400088D1400088D140008BC
:1000A0008D1400088D1400088D1400088D140008AC
:1000B0000D0F00088D140008000000008D140008CA
:1000C0008D14000800000000000000008D140008DE
:1000D000000000008D1400088D14000800000000CE
:1000E0008D1400088D1400088D1400080000000015
:1000F0000000000000000000000000000000000000
:0C01000000000000000000005FF808F1A3
:10010C0010B5054C237833B9044B13B10448AFF345
:10011C0000800123237010BD180000200000000097
:10012C007C2A000808B5034B1BB103490348AFF305
:10013C00008008BD000000001C0000207C2A000884
:10014C0080B582B000AF78607B68002B03D07B68F1
:10015C00012B0CD017E0002280210D4801F07EFC11
:10016C0001224FF480710A4801F078FC0BE0012267
:10017C008021074801F072FC00224FF48071044882
:10018C0001F06CFC00BF00BF0837BD4680BD00BF4E
:10019C000008014080B582B000AF78607B68002B0E
:1001AC0003D07B68012B0DD019E000224FF40071B5
:1001BC000D4801F053FC01224FF480610A4801F014
:1001CC004DFC0CE001224FF40071074801F046FC95
:1001DC0000224FF48061044801F040FC00BF00BFD6
:1001EC000837BD4680BD00BF0008014080B582B015
:1001FC0000AF78607B68062B00F20E8101A252F8EA
:10020C0023F000BF2D02000875020008BD02000893
:10021C00050300084D03000895030008DD030008E2
:10022C00002201217F4801F019FC002202217D48A7
:10023C0001F014FC002204217A4801F00FFC00228A
:10024C000821784801F00AFC00221021754801F0C1
:10025C0005FC00222021734801F000FC0122402102
:10026C00704801F0FBFBD8E0012201216D4801F040
:10027C00F5FB002202216B4801F0F0FB0022042167
:10028C00684801F0EBFB01220821664801F0E6FB0F
:10029C0001221021634801F0E1FB01222021614879
:1002AC0001F0DCFB012240215E4801F0D7FBB4E0F9
:1002BC00002201215B4801F0D1FB002202215948A8
:1002CC0001F0CCFB01220421564801F0C7FB0022AF
:1002DC000821544801F0C2FB00221021514801F0C2
:1002EC00BDFB012220214F4801F0B8FB0022402128
:1002FC004C4801F0B3FB90E000220121494801F089
:10030C00ADFB00220221474801F0A8FB002204218A
:10031C00444801F0A3FB00220821424801F09EFB57
:10032C00012210213F4801F099FB012220213D4878
:10033C0001F094FB002240213A4801F08FFB6CE065
:10034C0001220121374801F089FB002202213548A6
:10035C0001F084FB00220421324801F07FFB0122D2
:10036C000821304801F07AFB012210212D4801F0C0
:10037C0075FB002220212B4801F070FB002240214C
:10038C00284801F06BFB48E000220121254801F0D0
:10039C0065FB01220221234801F060FB00220421AD
:1003AC00204801F05BFB002208211E4801F056FB9F
:1003BC00012210211B4801F051FB00222021194879
:1003CC0001F04CFB00224021164801F047FB24E0D1
:1003DC0000220121134801F041FB012202211148A6
:1003EC0001F03CFB002204210E4801F037FB0022F7
:1003FC0008210C4801F032FB00221021094801F0C1
:10040C002DFB00222021074801F028FB002240216F
:10041C00044801F023FB00E000BF00BF0837BD46D5
:10042C0080BD00BF000C014080B582B000AF786089
:10043C007B68062B00F2388101A252F823F000BF32
:10044C0069040008BD0400081105000865050008D2
:10045C00B90500080D06000861060008002280217D
:10046C00944801F0FBFA00224FF48071914801F09E
:10047C00F5FA00224FF400718E4801F0EFFA0022D9
:10048C004FF480618B4801F0E9FA00224FF40061CF
:10049C00884801F0E3FA00224FF48051864801F0BD
:1004AC00DDFA01224FF40051834801F0D7FAFCE049
:1004BC00012280217F4801F0D1FA00224FF4807193
:1004CC007C4801F0CBFA00224FF40071794801F01E
:1004DC00C5FA01224FF48061764801F0BFFA01227F
:1004EC004FF40061734801F0B9FA01224FF48051C6
:1004FC00714801F0B3FA01224FF400516E4801F03B
:10050C00ADFAD2E0002280216A4801F0A7FA00225D
:10051C004FF48071674801F0A1FA01224FF4007189
:10052C00644801F09BFA00224FF48061614801F0AD
:10053C0095FA00224FF400615E4801F08FFA012217
:10054C004FF480515C4801F089FA00224FF40051BD
:10055C00594801F083FAA8E000228021554801F0A7
:10056C007DFA00224FF48071524801F077FA002294
:10057C004FF400714F4801F071FA00224FF4806182
:10058C004C4801F06BFA01224FF40061494801F02C
:10059C0065FA01224FF48051474801F05FFA0022BE
:1005AC004FF40051444801F059FA7EE001228021B9
:1005BC00404801F053FA00224FF480713D4801F09D
:1005CC004DFA00224FF400713A4801F047FA01222B
:1005DC004FF48061374801F041FA01224FF4006179
:1005EC00344801F03BFA00224FF48051324801F0BC
:1005FC0035FA00224FF400512F4801F02FFA54E045
:10060C00002280212B4801F029FA01224FF480713D
:10061C00284801F023FA00224FF40071254801F01C
:10062C001DFA00224FF48061224801F017FA0122D2
:10063C004FF400611F4801F011FA00224FF4805171
:10064C001D4801F00BFA00224FF400511A4801F03A
:10065C0005FA2AE000228021164801F0FFF9012258
:10066C004FF48071134801F0F9F900224FF4007136
:10067C00104801F0F3F900224FF480610D4801F0AD
:10068C00EDF900224FF400610A4801F0E7F900226D
:10069C004FF48051084801F0E1F900224FF4005169
:1006AC00054801F0DBF900E000BF00BF0837BD468C
:1006BC0080BD00BF000C01400008014080B500AFB8
:1006CC00334B1B68032B5AD801A252F823F000BFFE
:1006DC00ED0600080D070008370700086107000841
:1006EC0000F0E0F82A4B01221A602A4B1B683233C7
:1006FC00294A1360284B1B68184600F09DFA45E008
:10070C00002000F0F3F8254B1B68012B39D1204B4E
:10071C0002221A60224B1B6832331F4A13601E4B95
:10072C001B68184600F088FA2BE0012000F0DEF878
:10073C001A4B1B68012B26D1154B03221A60194B3F
:10074C001B683233144A1360134B1B68184600F0B5
:10075C0073FA18E0022000F0C9F8104B1B68012B4B
:10076C0013D10B4B01221A600A4B1B6832330A4A15
:10077C001360094B1B68184600F05EFA05E000BFD9
:10078C0004E000BF02E000BF00E000BF00BF80BD7E
:10079C003C000020000000203400002098000020C5
:1007AC00040000200800002080B500AF334B1B680C
:1007BC00032B5AD801A252F823F000BFD907000826
:1007CC00F9070008230800084D08000800F06AF833
:1007DC002A4B02221A602A4B1B683233294A1360B7
:1007EC00284B1B68184600F03BFA45E0002000F04F
:1007FC00C5F8254B1B68012B39D1204B02221A60FE
:10080C001F4B1B6832331F4A13601E4B1B68184664
:10081C0000F026FA2BE0012000F0B0F81A4B1B6810
:10082C00012B26D1154B03221A60184B1B6832334F
:10083C00144A1360134B1B68184600F011FA18E0A9
:10084C00022000F09BF8104B1B68012B13D10B4BB3
:10085C0001221A600E4B1B6832330A4A1360094B93
:10086C001B68184600F0FCF905E000BF04E000BF6F
:10087C0002E000BF00E000BF00BF80BD40000020D0
:10088C000400002038000020A000002008000020F8
:10089C000000002080B500AFFFF710FFFFF784FFCA
:1008AC0000BF80BD80B500AF012201210E4801F0D0
:1008BC00D5F8012202210C4801F0D0F801220421C4
:1008CC00094801F0CBF801220821074801F0C6F8CD
:1008DC0001221021044801F0C1F801222021024814
:1008EC0001F0BCF800BF80BD0008014080B582B0AB
:1008FC0000AF78607B68022B29D07B68022B36DC3A
:10090C007B68002B03D07B68012B10D02FE00022DA
:10091C000121194801F0A2F801220221164801F028
:10092C009DF801220421144801F098F820E00122DE
:10093C000121114801F092F8002202210E4801F029
:10094C008DF8012204210C4801F088F810E00122F6
:10095C000121094801F082F801220221064801F028
:10096C007DF800220421044801F078F800E000BF73
:10097C0000BF0837BD4680BD0008014080B582B07D
:10098C0000AF78607B68022B29D07B68022B36DCA9
:10099C007B68002B03D07B68012B10D02FE000224A
:1009AC000821194801F05AF801221021164801F0CB
:1009BC0055F801222021144801F050F820E00122C2
:1009CC000821114801F04AF8002210210E4801F0CC
:1009DC0045F8012220210C4801F040F810E00122DA
:1009EC000821094801F03AF801221021064801F0CB
:1009FC0035F800222021044801F030F800E000BF57
:100A0C0000BF0837BD4680BD0008014080B500AF6F
:100A1C0000F038FD00F022F800F0A8F800F05AF8C9
:100A2C00094801F061FC094B00221A60084B0022B6
:100A3C001A60084B00221A60074B00221A60FFF75D
:100A4C0029FF00F0F1FCFAE74C0000203C000020EC
:100A5C0040000020440000204800002080B590B0E9
:100A6C0000AF07F1180328220021184601F0D4FF2B
:100A7C003B1D00221A605A609A60DA601A610223E8
:100A8C00BB610123BB621023FB6200237B6307F174
:100A9C001803184600F0FAFF0346002B01D000F0B3
:100AAC00C5F80F237B600023BB600023FB60002391
:100ABC003B6100237B613B1D0021184601F068FA65
:100ACC000346002B01D000F0B1F800BF4037BD4603
:100ADC0080BD000080B586B000AF07F1080300228E
:100AEC001A605A609A60DA603B4600221A605A60BB
:100AFC001D4B4FF080421A601B4B41F63F725A60FF
:100B0C00194B00229A60184B0922DA60164B00220E
:100B1C001A61154B00229A61134801F095FB0346AC
:100B2C00002B01D000F082F84FF48053BB6007F12A
:100B3C00080319460C4801F02BFD0346002B01D08D
:100B4C0000F074F800233B6000237B603B461946A1
:100B5C00054801F0F7FE0346002B01D000F066F8C3
:100B6C0000BF1837BD4680BD4C00002080B586B054
:100B7C0000AF07F1080300221A605A609A60DA602D
:100B8C00224B9B69214A43F0040393611F4B9B69E1
:100B9C0003F004037B607B681C4B9B691B4A43F08E
:100BAC0008039361194B9B6903F008033B603B6896
:100BBC00002243F2BF71164800F050FF002240F6AD
:100BCC00FF71144800F04AFF43F2BF73BB6001236E
:100BDC00FB6000233B6102237B6107F1080319468C
:100BEC000B4800F0BFFD40F6FF73BB600123FB60B8
:100BFC0000233B6102237B6107F10803194605487A
:100C0C0000F0B0FD00BF1837BD4680BD001002409B
:100C1C0000080140000C014080B582B000AF786044
:100C2C0000F082F800BF0837BD4680BD80B400AF2D
:100C3C0072B600BFFEE7000080B483B000AF7860EE
:100C4C00054A7B681360054B00221A6000BF0C3705
:100C5C00BD4680BC704700BF940000209800002067
:100C6C0080B483B000AF7860054A7B681360054B95
:100C7C0000221A6000BF0C37BD4680BC704700BF15
:100C8C009C000020A000002080B483B000AF7860EE
:100C9C00054A7B681360054B00221A6000BF0C37B5
:100CAC00BD4680BC704700BFA4000020A8000020F7
:100CBC0080B483B000AF7860054A7B681360054B45
:100CCC0000221A6000BF0C37BD4680BC704700BFC5
:100CDC00AC000020B000002080B483B000AF78607E
:100CEC00054A7B681360054B00221A6000BF0C3765
:100CFC00BD4680BC704700BFB4000020B800002087
:100D0C0080B483B000AF7860054A7B681360054BF4
:100D1C0000221A6000BF0C37BD4680BC704700BF74
:100D2C00BC000020C000002080B400AF314B1B6819
:100D3C00002B04DD2F4B1B68013B2E4A13602D4BFF
:100D4C001B68002B02DC2C4B01221A602B4B1B68FE
:100D5C00002B04DD294B1B68013B284A1360274BF1
:100D6C001B68002B02DC264B01221A60254B1B68EA
:100D7C00002B04DD234B1B68013B224A1360214BE3
:100D8C001B68002B02DC204B01221A601F4B1B68D6
:100D9C00002B04DD1D4B1B68013B1C4A13601B4BD5
:100DAC001B68002B02DC1A4B01221A60194B1B68C2
:100DBC00002B04DD174B1B68013B164A1360154BC7
:100DCC001B68002B02DC144B01221A60134B1B68AE
:100DDC00002B04DD114B1B68013B104A13600F4BB9
:100DEC001B68002B02DC0E4B01221A6000BFBD46B3
:100DFC0080BC704794000020980000209C000020CC
:100E0C00A0000020A4000020A8000020AC000020BE
:100E1C00B0000020B4000020B8000020BC0000206E
:100E2C00C000002080B483B000AF0E4B9B690D4A0C
:100E3C0043F0010393610B4B9B6903F001037B604F
:100E4C007B68084BDB69074A43F08053D361054B41
:100E5C00DB6903F080533B603B6800BF0C37BD4639
:100E6C0080BC70470010024080B584B000AF786041
:100E7C007B681B68B3F1804F13D10C4BDB690B4AB9
:100E8C0043F00103D361094BDB6903F00103FB6001
:100E9C00FB68002200211C2000F02DFC1C2000F01F
:100EAC0046FC00BF1037BD4680BD00BF001002409D
:100EBC0080B400AFFEE780B400AFFEE780B400AFB3
:100ECC00FEE780B400AFFEE780B400AFFEE780B46D
:100EDC0000AF00BFBD4680BC704780B400AF00BF00
:100EEC00BD4680BC704780B400AF00BFBD4680BC1F
:100EFC00704780B500AF00F00BFB00BF80BD000059
:100F0C0080B500AF024801F03BFA00BF80BD00BFC6
:100F1C004C00002080B400AF00BFBD4680BC7047C1
:100F2C0080B483B000AF114B1B68114A82FB0312D3
:100F3C009210DB17D31A7B600C4B1A680C4B83FB9B
:100F4C0002139910D317C91A0B469B000B445B0074
:100F5C00D31A3B60074A7B681360064A3B685360B0
:100F6C0000BF0C37BD4680BC704700BFC4000020DA
:100F7C0067666666D400002080B483B000AF114B66
:100F8C001B68114A82FB03129210DB17D31A7B6089
:100F9C000C4B1A680C4B83FB02139910D317C91A0C
:100FAC000B469B000B445B00D31A3B60074A7B68E3
:100FBC001360064A3B68536000BF0C37BD4680BCCB
:100FCC00704700BFC800002067666666DC00002022
:100FDC0080B500AF7F4B1B68032B00F2F18001A2A0
:100FEC0052F823F0011000082D100008BD10000865
:100FFC0045110008784B1B68784A82FB031252118A
:10100C00DB17D31A764A1360FFF78AFF714B012264
:10101C001A603220FFF738FE6420FFF749FED6E055
:10102C00704B1B68012B1FD13220FFF72DFE6E4B2E
:10103C001B68012B11DC6C4B1B681846FFF780F802
:10104C00694B1B68694A52F823301846FFF7CEF8F3
:10105C00654B1B680133644A1360634B1B68012B9F
:10106C0002DD614B00221A60614B1B68012B40F0C2
:10107C00A9806420FFF71CFE594B1B68013B584AA2
:10108C001360574B1B68002B0FDC524B02221A606B
:10109C00584B1B68514A82FB03125211DB17D31AAF
:1010AC004F4A1360FFF73CFF91E0FFF739FF89E0EF
:1010BC004C4B1B68012B1FD13220FFF7E5FD4A4B2F
:1010CC001B68012B11DC484B1B681846FFF738F8DE
:1010DC00454B1B68454A52F823301846FFF786F8F3
:1010EC00414B1B680133404A13603F4B1B68012B7B
:1010FC0002DD3D4B00221A603D4B1B68012B63D176
:10110C006420FFF7D5FD364B1B68013B344A136056
:10111C00334B1B68002B0CDC2E4B03221A60364B16
:10112C001B682E4A82FB03125211DB17D31A2C4A6E
:10113C001360FFF7F5FE47E02A4B1B68012B1FD10C
:10114C003220FFF7A1FD284B1B68012B11DC264B2D
:10115C001B681846FEF7F4FF234B1B68234A52F812
:10116C0023301846FFF742F81F4B1B6801331E4A09
:10117C0013601D4B1B68012B02DD1B4B00221A60F8
:10118C001B4B1B68012B21D16420FFF791FD144BE5
:10119C001B68013B124A1360114B1B68002B0CDCC3
:1011AC000C4B01221A600C4B1B680C4A82FB03127D
:1011BC005211DB17D31A0A4A1360FFF7B1FE05E090
:1011CC0000BF04E000BF02E000BF00E000BF00BFB2
:1011DC0080BD00BF44000020000000201F85EB51A3
:1011EC00C4000020A8000020CC000020D400002067
:1011FC00B0000020040000200800002080B500AFE3
:10120C007F4B1B68032B00F2F18001A252F823F0F4
:10121C002D12000859120008E91200087113000879
:10122C00784B1B68784A82FB03125211DB17D31AD6
:10123C00764A1360FFF7A0FE714B02221A6032202F
:10124C00FFF74AFD6420FFF75BFDD6E0704B1B688F
:10125C00012B1FD13220FFF73FFD6E4B1B68012B7A
:10126C0011DC6C4B1B681846FEF794FF694B1B682E
:10127C00694A52F823301846FFF7D6F8654B1B68BD
:10128C000133644A1360634B1B68012B02DD614B15
:10129C0000221A60614B1B68012B40F0A98064206E
:1012AC00FFF72EFD594B1B68013B584A1360574BF7
:1012BC001B68002B0FDC524B02221A60514B1B682F
:1012CC00514A82FB03125211DB17D31A4F4A136097
:1012DC00FFF752FE91E0FFF74FFE89E04C4B1B6885
:1012EC00012B1FD13220FFF7F7FC4A4B1B68012B57
:1012FC0011DC484B1B681846FEF74CFF454B1B682E
:10130C00454A52F823301846FFF78EF8414B1B68BC
:10131C000133404A13603F4B1B68012B02DD3D4BF0
:10132C0000221A603D4B1B68012B63D16420FFF730
:10133C00E7FC364B1B68013B344A1360334B1B688C
:10134C00002B0CDC2E4B03221A60354B1B682E4AEB
:10135C0082FB03125211DB17D31A2C4A1360FFF7CE
:10136C000BFE47E02A4B1B68012B1FD13220FFF7E5
:10137C00B3FC284B1B68012B11DC264B1B68184651
:10138C00FEF708FF234B1B68234A52F823301846FC
:10139C00FFF74AF81F4B1B6801331E4A13601D4BA5
:1013AC001B68012B02DD1B4B00221A601B4B1B68B8
:1013BC00012B21D16420FFF7A3FC144B1B68013BCC
:1013CC00124A1360114B1B68002B0CDC0C4B0122D6
:1013DC001A60144B1B680C4A82FB03125211DB1768
:1013EC00D31A0A4A1360FFF7C7FD05E000BF04E0FB
:1013FC0000BF02E000BF00E000BF00BF80BD00BF27
:10140C0048000020040000201F85EB51C80000207C
:10141C00B8000020D0000020DC000020C00000201C
:10142C00080000200000002080B500AFFFF7D0FDC1
:10143C00FFF7E4FE00BF80BDFFF76CFD0B480C49C5
:10144C000C4A002302E0D458C4500433C4188C4214
:10145C00F9D3094A094C002301E013600432A2427B
:10146C00FBD301F0E1FAFFF7D1FA7047000000203E
:10147C0018000020C02A000818000020E8000020F6
:10148C00FEE7000080B500AF084B1B68074A43F02D
:10149C0010031360032000F023F90F2000F008F86C
:1014AC00FFF7C0FC0023184680BD00BF002002409F
:1014BC0080B582B000AF7860124B1A68124B1B7863
:1014CC0019464FF47A73B3FBF1F3B2FBF3F31846FE
:1014DC0000F03BF90346002B01D001230EE07B68A2
:1014EC000F2B0AD8002279684FF0FF3000F003F977
:1014FC00064A7B681360002300E001231846083776
:10150C00BD4680BD0C0000201400002010000020FF
:10151C0080B400AF054B1B781A46054B1B6813446F
:10152C00034A136000BFBD4680BC70471400002006
:10153C00E400002080B400AF024B1B681846BD4687
:10154C0080BC7047E400002080B485B000AF7860A8
:10155C007B6803F00703FB600C4BDB68BB60BA686D
:10156C004FF6FF031340BB60FB681A02BB681343C2
:10157C0043F0BF6343F40033BB60044ABB68D360E1
:10158C0000BF1437BD4680BC704700BF00ED00E0C3
:10159C0080B400AF044BDB681B0A03F0070318464A
:1015AC00BD4680BC704700BF00ED00E080B483B046
:1015BC0000AF0346FB7197F90730002B0BDBFB796F
:1015CC0003F01F02064997F907305B09012000FA66
:1015DC0002F241F8232000BF0C37BD4680BC704797
:1015EC0000E100E080B483B000AF03463960FB71CA
:1015FC0097F90730002B0ADB3B68DAB20C4997F9F4
:10160C0007301201D2B20B4483F800230AE03B6886
:10161C00DAB20849FB7903F00F03043B1201D2B292
:10162C000B441A7600BF0C37BD4680BC704700BF18
:10163C0000E100E000ED00E080B489B000AFF8609C
:10164C00B9607A60FB6803F00703FB61FB69C3F1C7
:10165C000703042B28BF0423BB61FB690433062B4F
:10166C0002D9FB69033B00E000237B614FF0FF32A2
:10167C00BB6902FA03F3DA43BB681A407B699A40F0
:10168C004FF0FF317B6901FA03F3D9437B680B40C0
:10169C00134318462437BD4680BC704780B582B0D2
:1016AC0000AF78607B68013BB3F1807F01D30123ED
:1016BC000FE00A4A7B68013B53600F214FF0FF306B
:1016CC00FFF790FF054B00229A60044B07221A602B
:1016DC00002318460837BD4680BD00BF10E000E06F
:1016EC0080B582B000AF78607868FFF72DFF00BF3F
:1016FC000837BD4680BD80B586B000AF0346B960E3
:10170C007A60FB7300237B61FFF742FF78617A6894
:10171C00B9687869FFF790FF024697F90F301146C8
:10172C001846FFF75FFF00BF1837BD4680BD80B578
:10173C0082B000AF0346FB7197F907301846FFF7EC
:10174C0035FF00BF0837BD4680BD80B582B000AF05
:10175C0078607868FFF7A2FF034618460837BD4645
:10176C0080BD000080B48BB000AF7860396000237E
:10177C007B6200233B6261E101227B6A02FA03F384
:10178C00FB613B681B68FA691340BB61BA69FB6972
:10179C009A4240F050813B685B68974A93425ED016
:1017AC00954A934275D8954A934258D0934A93429E
:1017BC006FD8934A934252D0914A934269D8914A36
:1017CC0093424CD08F4A934263D88F4A934246D06F
:1017DC008D4A93425DD8122B2AD8122B59D801A2CC
:1017EC0052F823F06B180008451800085718000829
:1017FC00991800089F1800089F1800089F180008E7
:10180C009F1800089F1800089F1800089F180008D0
:10181C009F1800089F1800089F1800089F180008C0
:10182C009F1800089F1800084D1800086118000840
:10183C00764A934213D02CE03B68DB683B6229E08C
:10184C003B68DB6804333B6224E03B68DB680833AD
:10185C003B621FE03B68DB680C333B621AE03B6881
:10186C009B68002B02D104233B6213E03B689B680E
:10187C00012B05D108233B627B68FA691A6109E0E8
:10188C0008233B627B68FA695A6103E000233B62E0
:10189C0000E000BFBB69FF2B01D87B6801E07B68CF
:1018AC0004337B61BB69FF2B02D87B6A9B0002E08F
:1018BC007B6A083B9B003B617B691A680F213B6983
:1018CC0001FA03F3DB431A40396A3B6901FA03F36B
:1018DC001A437B691A603B685B6803F08053002BEA
:1018EC0000F0A9804A4B9B69494A43F0010393617C
:1018FC00474B9B6903F00103BB60BB68454A7B6A9D
:10190C009B08023352F82330FB607B6A03F003031D
:10191C009B000F2202FA03F3DB43FA681340FB60CF
:10192C007B683D4A93420DD07B683C4A934207D07A
:10193C007B683B4A934201D1022304E0032302E07B
:10194C00012300E000237A6A02F003029200934024
:10195C00FA681343FB602F497B6A9B080233FA68D1
:10196C0041F823203B685B6803F48013002B06D0FE
:10197C002C4B9A682B49BB6913438B6006E0294BAF
:10198C009A68BB69DB43274913408B603B685B68F3
:10199C0003F40013002B06D0224BDA682149BB69F3
:1019AC001343CB6006E01F4BDA68BB69DB431D4970
:1019BC001340CB603B685B6803F40033002B06D00C
:1019CC00184B5A681749BB6913434B6006E0154B1B
:1019DC005A68BB69DB43134913404B603B685B6837
:1019EC0003F48033002B1FD00E4B1A680D49BB69D2
:1019FC0013430B601FE000BF0000321000003110D9
:101A0C000000221000002110000012100000111024
:101A1C00001002400000014000080140000C014091
:101A2C0000100140000401400B4B1A68BB69DB43FA
:101A3C00094913400B607B6A01337B623B681A686F
:101A4C007B6A22FA03F3002B7FF496AE00BF00BF33
:101A5C002C37BD4680BC70470004014080B483B075
:101A6C0000AF78600B467B8013467B707B78002B35
:101A7C0003D07A887B681A6103E07B881A047B6840
:101A8C001A6100BF0C37BD4680BC704780B586B06C
:101A9C0000AF78607B68002B01D1012372E27B6878
:101AAC001B6803F00103002B00F08780924B5B68EE
:101ABC0003F00C03042B0CD08F4B5B6803F00C036E
:101ACC00082B12D18C4B5B6803F48033B3F5803F49
:101ADC000BD1894B1B6803F40033002B6CD07B6853
:101AEC005B68002B68D101234CE27B685B68B3F523
:101AFC00803F06D1804B1B687F4A43F480331360D0
:101B0C002EE07B685B68002B0CD17B4B1B687A4A00
:101B1C0023F480331360784B1B68774A23F48023BB
:101B2C0013601DE07B685B68B3F5A02F0CD1724B82
:101B3C001B68714A43F4802313606F4B1B686E4A19
:101B4C0043F4803313600BE06B4B1B686A4A23F43D
:101B5C0080331360684B1B68674A23F4802313603F
:101B6C007B685B68002B13D0FFF7E4FC386108E05E
:101B7C00FFF7E0FC02463B69D31A642B01D903231F
:101B8C0000E25D4B1B6803F40033002BF0D014E033
:101B9C00FFF7D0FC386108E0FFF7CCFC02463B694C
:101BAC00D31A642B01D90323ECE1534B1B6803F4C8
:101BBC000033002BF0D100E000BF7B681B6803F002
:101BCC000203002B63D04C4B5B6803F00C03002B1F
:101BDC000BD0494B5B6803F00C03082B1CD1464B14
:101BEC005B6803F48033002B16D1434B1B6803F066
:101BFC000203002B05D07B681B69012B01D001234C
:101C0C00C0E13D4B1B6823F0F8027B685B69DB008D
:101C1C00394913430B603AE07B681B69002B20D0D9
:101C2C00364B01221A60FFF785FC386108E0FFF79C
:101C3C0081FC02463B69D31A022B01D90323A1E193
:101C4C002D4B1B6803F00203002BF0D02A4B1B68B2
:101C5C0023F0F8027B685B69DB00274913430B60B8
:101C6C0015E0264B00221A60FFF764FC386108E08F
:101C7C00FFF760FC02463B69D31A022B01D9032300
:101C8C0080E11D4B1B6803F00203002BF0D17B6835
:101C9C001B6803F00803002B3AD07B689B69002B70
:101CAC0019D0174B01221A60FFF744FC386108E089
:101CBC00FFF740FC02463B69D31A022B01D90323E0
:101CCC0060E10D4B5B6A03F00203002BF0D00120A6
:101CDC0000F09CFA1CE00A4B00221A60FFF72AFC69
:101CEC0038610FE0FFF726FC02463B69D31A022B42
:101CFC0008D9032346E100BF001002400000424215
:101D0C0080044242924B5B6A03F00203002BE9D140
:101D1C007B681B6803F00403002B00F0A6800023F3
:101D2C00FB758B4BDB6903F08053002B0DD1884B7B
:101D3C00DB69874A43F08053D361854BDB6903F041
:101D4C008053BB60BB680123FB75824B1B6803F49B
:101D5C008073002B18D17F4B1B687E4A43F4807331
:101D6C001360FFF7E7FB386108E0FFF7E3FB02467F
:101D7C003B69D31A642B01D9032303E1754B1B6810
:101D8C0003F48073002BF0D07B68DB68012B06D149
:101D9C006F4B1B6A6E4A43F0010313622DE07B68A4
:101DAC00DB68002B0CD16A4B1B6A694A23F00103D8
:101DBC001362674B1B6A664A23F0040313621CE030
:101DCC007B68DB68052B0CD1614B1B6A604A43F0C6
:101DDC00040313625E4B1B6A5D4A43F001031362FA
:101DEC000BE05B4B1B6A5A4A23F001031362584BFE
:101DFC001B6A574A23F0040313627B68DB68002BD1
:101E0C0015D0FFF797FB38610AE0FFF793FB02460A
:101E1C003B69D31A41F28832934201D90323B1E0D2
:101E2C004B4B1B6A03F00203002BEED014E0FFF7C0
:101E3C0081FB38610AE0FFF77DFB02463B69D31A50
:101E4C0041F28832934201D903239BE0404B1B6A39
:101E5C0003F00203002BEED1FB7D012B05D13C4B93
:101E6C00DB693B4A23F08053D3617B68DB69002B31
:101E7C0000F08780364B5B6803F00C03082B61D0B5
:101E8C007B68DB69022B46D1334B00221A60FFF7CB
:101E9C0051FB386108E0FFF74DFB02463B69D31A52
:101EAC00022B01D903236DE0294B1B6803F000734F
:101EBC00002BF0D17B681B6AB3F5803F08D1244B13
:101ECC005B6823F400327B689B68214913434B60A9
:101EDC001F4B5B6823F474127B68196A7B685B6A1E
:101EEC000B431B4913434B601B4B01221A60FFF73A
:101EFC0021FB386108E0FFF71DFB02463B69D31A52
:101F0C00022B01D903233DE0114B1B6803F0007336
:101F1C00002BF0D035E0104B00221A60FFF70AFBC3
:101F2C00386108E0FFF706FB02463B69D31A022B27
:101F3C0001D9032326E0064B1B6803F00073002B2A
:101F4C00F0D11EE07B68DB69012B07D1012319E07E
:101F5C000010024000700040600042420B4B5B6876
:101F6C00FB60FB6803F480327B681B6A9A4206D1E3
:101F7C00FB6803F470127B685B6A9A4201D0012300
:101F8C0000E0002318461837BD4680BD0010024003
:101F9C0080B584B000AF786039607B68002B01D1CC
:101FAC000123D0E06A4B1B6803F007033A689A429E
:101FBC0010D9674B1B6823F0070265493B68134334
:101FCC000B60634B1B6803F007033A689A4201D01D
:101FDC000123B8E07B681B6803F00203002B20D0C0
:101FEC007B681B6803F00403002B05D0594B5B681E
:101FFC00584A43F4E06353607B681B6803F00803A2
:10200C00002B05D0534B5B68524A43F4605353602A
:10201C00504B5B6823F0F0027B689B684D4913437F
:10202C004B607B681B6803F00103002B40D07B687E
:10203C005B68012B07D1474B1B6803F40033002B63
:10204C0015D101237FE07B685B68022B07D1414BE4
:10205C001B6803F00073002B09D1012373E03D4B87
:10206C001B6803F00203002B01D101236BE0394BF9
:10207C005B6823F003027B685B68364913434B6053
:10208C00FFF758FAF8600AE0FFF754FA0246FB68CB
:10209C00D31A41F28832934201D9032353E02D4BDA
:1020AC005B6803F00C027B685B689B009A42EBD187
:1020BC00274B1B6803F007033A689A4210D2244B53
:1020CC001B6823F0070222493B6813430B60204B2B
:1020DC001B6803F007033A689A4201D0012332E0EF
:1020EC007B681B6803F00403002B08D0194B5B685A
:1020FC0023F4E0627B68DB68164913434B607B6812
:10210C001B6803F00803002B09D0124B5B6823F407
:10211C0060527B681B69DB000E4913434B6000F077
:10212C0021F802460B4B5B681B0903F00F030A49AD
:10213C00CB5C22FA03F3094A1360094B1B6818465F
:10214C00FFF7B6F9002318461037BD4680BD00BF17
:10215C000020024000100240942A00080C000020CD
:10216C001000002080B487B000AF0023FB60002378
:10217C00BB6000237B6100237B6000233B611E4B13
:10218C005B68FB60FB6803F00C03042B02D0082B8C
:10219C0003D027E0194B3B6127E0FB689B0C03F055
:1021AC000F03174AD35C7B60FB6803F48033002B6E
:1021BC0010D0114B5B685B0C03F00103114AD35C2C
:1021CC00BB607B680D4A03FB02F2BB68B2FBF3F306
:1021DC007B6104E07B680C4A02FB03F37B617B6947
:1021EC003B6102E0054B3B6100BF3B6918461C3765
:1021FC00BD4680BC704700BF0010024000127A0040
:10220C00A42A0008B42A000800093D0080B485B057
:10221C0000AF78600A4B1B680A4AA2FB03235B0AD7
:10222C007A6802FB03F3FB6000BFFB685A1EFA607E
:10223C00002BF9D100BF00BF1437BD4680BC7047DE
:10224C000C000020D34D621080B582B000AF7860D6
:10225C007B68002B01D1012341E07B6893F83D3072
:10226C00DBB2002B06D17B68002283F83C20786817
:10227C00FEF7FAFD7B68022283F83D207B681A6822
:10228C007B6804331946104600F06EFA7B68012215
:10229C0083F846207B68012283F83E207B6801226C
:1022AC0083F83F207B68012283F840207B68012261
:1022BC0083F841207B68012283F842207B6801224D
:1022CC0083F843207B68012283F844207B68012239
:1022DC0083F845207B68012283F83D2000231846B3
:1022EC000837BD4680BD000080B485B000AF786073
:1022FC007B6893F83D30DBB2012B01D0012335E034
:10230C007B68022283F83D207B681B68DA687B6857
:10231C001B6842F00102DA607B681B68164A934224
:10232C0009D07B681B68B3F1804F04D07B681B68B5
:10233C00124A934211D17B681B689B6803F0070318
:10234C00FB60FB68062B10D07B681B681A687B68E7
:10235C001B6842F001021A6007E07B681B681A6870
:10236C007B681B6842F001021A6000231846143780
:10237C00BD4680BC704700BF002C014000040040EB
:10238C0080B582B000AF78607B681B681B6903F076
:10239C000203022B22D17B681B68DB6803F002036B
:1023AC00022B1BD17B681B686FF002021A617B68E1
:1023BC0001221A777B681B689B6903F00303002BCF
:1023CC0003D0786800F0B4F905E0786800F0A7F95C
:1023DC00786800F0B6F97B6800221A777B681B6876
:1023EC001B6903F00403042B22D17B681B68DB6898
:1023FC0003F00403042B1BD17B681B686FF00402F1
:10240C001A617B6802221A777B681B689B6903F44C
:10241C004073002B03D0786800F08AF905E07868E7
:10242C0000F07DF9786800F08CF97B6800221A774F
:10243C007B681B681B6903F00803082B22D17B689F
:10244C001B68DB6803F00803082B1BD17B681B6837
:10245C006FF008021A617B6804221A777B681B688C
:10246C00DB6903F00303002B03D0786800F060F9FC
:10247C0005E0786800F053F9786800F062F97B6841
:10248C0000221A777B681B681B6903F01003102B62
:10249C0022D17B681B68DB6803F01003102B1BD167
:1024AC007B681B686FF010021A617B6808221A7730
:1024BC007B681B68DB6903F44073002B03D07868DE
:1024CC0000F036F905E0786800F029F9786800F03A
:1024DC0038F97B6800221A777B681B681B6903F04C
:1024EC000103012B0ED17B681B68DB6803F0010331
:1024FC00012B07D17B681B686FF001021A617868A9
:10250C00FEF78AFB7B681B681B6903F08003802B3A
:10251C000ED17B681B68DB6803F08003802B07D12E
:10252C007B681B686FF080021A61786800F06BFAA8
:10253C007B681B681B6903F04003402B0ED17B6842
:10254C001B68DB6803F04003402B07D17B681B68DA
:10255C006FF040021A61786800F0FCF87B681B6829
:10256C001B6903F02003202B0ED17B681B68DB68F2
:10257C0003F02003202B07D17B681B686FF020022F
:10258C001A61786800F036FA00BF0837BD4680BD86
:10259C0080B584B000AF786039600023FB737B6832
:1025AC0093F83C30012B01D10223B4E07B6801226B
:1025BC0083F83C207B68022283F83D207B681B68F3
:1025CC009B68BB60BB6823F07703BB60BB6823F4DC
:1025DC007F43BB607B681B68BA689A603B681B686A
:1025EC00B3F5005F3ED0B3F5005F00F28780B3F522
:1025FC00805F00F08680B3F5805F7FD8702B1AD097
:10260C00702B7BD8602B50D0602B77D8502B3CD0C4
:10261C00502B73D8402B58D0402B6FD8302B64D014
:10262C00302B6BD8202B60D0202B67D8002B5CD0A4
:10263C00102B5AD062E07B6818683B6899683B683D
:10264C005A683B68DB6800F05EF97B681B689B6826
:10265C00BB60BB6843F07703BB607B681B68BA68E0
:10266C009A604FE07B6818683B6899683B685A68C9
:10267C003B68DB6800F047F97B681B689A687B68ED
:10268C001B6842F480429A603CE07B6818683B68A7
:10269C0059683B68DB681A4600F0BEF87B681B681B
:1026AC005021184600F015F92CE07B6818683B683F
:1026BC0059683B68DB681A4600F0DCF87B681B68DD
:1026CC006021184600F005F91CE07B6818683B682F
:1026DC0059683B68DB681A4600F09EF87B681B68FB
:1026EC004021184600F0F5F80CE07B681A683B684E
:1026FC001B681946104600F0ECF803E00123FB734D
:10270C0000E000BF7B68012283F83D207B6800223B
:10271C0083F83C20FB7B18461037BD4680BD80B447
:10272C0083B000AF786000BF0C37BD4680BC7047EB
:10273C0080B483B000AF786000BF0C37BD4680BC5E
:10274C00704780B483B000AF786000BF0C37BD46D3
:10275C0080BC704780B483B000AF786000BF0C378A
:10276C00BD4680BC7047000080B485B000AF786077
:10277C0039607B681B68FB607B68254A934207D0F5
:10278C007B68B3F1804F03D07B68224A934208D117
:10279C00FB6823F07003FB603B685B68FA681343CB
:1027AC00FB607B681A4A934207D07B68B3F1804F79
:1027BC0003D07B68174A934208D1FB6823F440731B
:1027CC00FB603B68DB68FA681343FB60FB6823F033
:1027DC0080023B685B691343FB607B68FA681A6094
:1027EC003B689A687B68DA623B681A687B689A6215
:1027FC007B68074A934203D13B681A697B681A636A
:10280C007B6801225A6100BF1437BD4680BC7047FB
:10281C00002C01400004004080B487B000AFF86089
:10282C00B9607A60FB681B6A7B61FB681B6A23F0EA
:10283C000102FB681A62FB689B693B613B6923F0F0
:10284C00F0033B617B681B013A6913433B617B6975
:10285C0023F00A037B617A69BB6813437B61FB68D5
:10286C003A699A61FB687A691A6200BF1C37BD46E7
:10287C0080BC704780B487B000AFF860B9607A60F4
:10288C00FB681B6A7B61FB681B6A23F01002FB6808
:10289C001A62FB689B693B613B6923F470433B61A3
:1028AC007B681B033A6913433B617B6923F0A003EC
:1028BC007B61BB681B017A6913437B61FB683A69D6
:1028CC009A61FB687A691A6200BF1C37BD4680BCEE
:1028DC00704780B485B000AF786039607B689B68C6
:1028EC00FB60FB6823F07003FB603A68FB681343E2
:1028FC0043F00703FB607B68FA689A6000BF1437EB
:10290C00BD4680BC704780B487B000AFF860B9603A
:10291C007A603B60FB689B687B617B6923F47F4337
:10292C007B613B681A027B681A43BB6813437A6964
:10293C0013437B61FB687A699A6000BF1C37BD4604
:10294C0080BC704780B485B000AF786039607B681C
:10295C0093F83C30012B01D1022341E07B6801222A
:10296C0083F83C207B68022283F83D207B681B683F
:10297C005B68FB607B681B689B68BB60FB6823F033
:10298C007003FB603B681B68FA681343FB607B6851
:10299C001B68FA685A607B681B68144A934209D01A
:1029AC007B681B68B3F1804F04D07B681B68104AAE
:1029BC0093420CD1BB6823F08003BB603B685B681F
:1029CC00BA681343BB607B681B68BA689A607B6803
:1029DC00012283F83D207B68002283F83C200023F1
:1029EC0018461437BD4680BC704700BF002C014010
:1029FC000004004080B483B000AF786000BF0C3797
:102A0C00BD4680BC704780B483B000AF786000BF17
:102A1C000C37BD4680BC704703460244934200D13C
:102A2C00704703F8011BF9E770B500260C4D0D4CEF
:102A3C00641BA410A64209D100F01AF800260A4D16
:102A4C000A4C641BA410A64205D170BD55F8043B7A
:102A5C0098470136EEE755F8043B98470136F2E704
:102A6C00B82A0008B82A0008B82A0008BC2A0008AE
:102A7C00F8B500BFF8BC08BC9E467047F8B500BF5F
:082A8C00F8BC08BC9E4670472F
:102A9400000000000000000001020304060708090A
:102AA40002030405060708090A0B0C0D0E0F10108B
:042AB400010200001B
:042AB80031010008E0
:042ABC000D01000800
:102AC000F40100002C010000C80000000024F40004
:082AD0001000000001000000ED
:040000050800144596
:00000001FF
